:100000000C943E240C945A240C945A240C945A2494
:100010000C945A240C945A240C945A240C945A2468
:100020000C945A240C945A240C945A240C945A2458
:100030000C945A240C945A240C945A240C945A2448
:100040000C94262C0C945A240C942B2B0C94F52AEB
:100050000C94EB2A0C945A240C945A240C945A2491
:100060000C945A240C945A240000250028002B00DC
:100070000000240027002A00FFD0FFE0FFC1FFD1CD
:10008000AED580A83FD300408D142000A1C8DA125D
:1000900081CFD9F1DB402EA4A6AFFFD0FFFEFFE059
:1000A000FFD11000FFFEFFE0FFD1AEFFD0FFFEFF4B
:1000B000E0FFD1AFFF32FFD0FFFE004744E8EF1E64
:1000C00009E7177C20FFF52AF326F50000000B0056
:1000D000000624240D03FF0C3C7C7C7C7C7C78781F
:1000E0007838383838383838383838383838383850
:1000F0003800000000387CFCFCF8700D102014045F
:10010000133038F0F8F0F8F0F0F0F0F0F0F070F0B4
:1001100070F070F07070707070607060706070601F
:1001200070151B511702030030600070E00060C0C2
:1001300000E0C000E1C000E1C000C18001C3801F39
:10014000FFF81FFFF803870003870003070003067B
:1001500000070E00070E00060E00FFFFC0FFFFC0E5
:100160000C1C000C18001C38001C3800183000381B
:10017000700038700030600014246C1701FC0060BF
:100180000000600000600000600003FE000FFF80C0
:100190003E7FC0786780706380F06000F06000F0A0
:1001A0006000F860007E60007FE0003FF0000FFE1E
:1001B0000001FF00007FC0006FE00063E00061F01D
:1001C0000060F00060F04060F06060F07060E07827
:1001D00061E07C63C07FFF801FFF0007F8000060C4
:1001E000000060000060000060001F1E782201FF18
:1001F00007C000601FE001F03CF001C0787803C048
:1002000070780780F03C0700F03C0E00F03C1E00C8
:10021000F03C3C00F03C3800F03C78007838F000CE
:100220007878E0003CF1C0001FE3C3E00F878FF057
:1002300000071E78000F3C3C001E383C001C781E56
:100240000038781E0078781E00F0781E00E0781ED6
:1002500001C0781E03C03C1C03803C3C07001E7894
:100260000F000FF00C0007C01E2288200200003F84
:10027000000000FF800001C7C0000383E000070109
:10028000E0000701E0000F01E0000F01E0000F03B4
:10029000E0000F03C0000F87C0000F8F800007BF72
:1002A000000007FE000007F8000007F000000FF054
:1002B0003FF81FF07FFC3E781E303C7C0F007C3CFA
:1002C0000F00781E0700F01F0700F00F8700F007EF
:1002D000C600F003C600F003EC00F001FC00F800DB
:1002E000FC0078007E003C00FF003F038FC80FFF3A
:1002F00007F003F803C00410100C041330F0F0F002
:10030000F0F0F0F0F0F07070606060600B2D5A0F4C
:1003100003F9002000E001C00380038007000E0005
:100320000E001C001C003C003800380078007800EB
:1003300078007000F000F000F000F000F000F00035
:10034000F000F000F000F000F000F000780078001D
:100350007800780038003C003C001C001E000E00B5
:100360000F000700038001C000E000200B2D5A0F92
:1003700001F98000E000700038001C001E000E0033
:100380000F00070007800780038003C003C003C07D
:1003900003C001E001E001E001E001E001E001E073
:1003A00001E001E001E001E001E001C003C003C0A1
:1003B00003C003800380078007000F000E000E00BB
:1003C0001C00380038007000E000800012143C155A
:1003D000021100C00001C00001C00001C000C1C185
:1003E00000F0C3C0F8CFC07CDF000FFC0003E000CA
:1003F00003E0000FFC003CDF00F8CF80F0C380403A
:10040000C18001C00001C00001C0000180001111C5
:100410003314010500C00001C00001C00001C0008C
:1004200001C00001C00001C00001C000FFFF80FF4B
:10043000FF8001C00001C00001C00001C00001C078
:100440000001C000018000070D0D0B02F9083CFE01
:10045000FE1E1E1E1C1C383060400E020410010BD4
:100460007FFCFFF80606060B03FF387CFCFCF870E7
:10047000142E8A1701F80000300000F00000F00090
:1004800000E00001E00001C00001C00003C0000363
:1004900080000780000780000700000F00000F00A9
:1004A000000E00001E00001C00001C00003C0000AC
:1004B000380000780000780000700000F00000E0D4
:1004C0000000E00001E00001C00003C00003C00024
:1004D0000380000780000780000700000F00000E67
:1004E00000001E00001E00001C00003C00003C003C
:1004F00000380000780000700000F00000C000002C
:10050000131D5717020001F80007FC000E1E001C07
:100510000F001807803807803803C07003C07003CD
:10052000C07003E0F001E0F001E0F001E0F001E074
:10053000F001E0F001E0F001E0F001E0F001E0F0B6
:1005400001C07801C07803C07803803C03803C037D
:10055000001E07000F0E0007FC0003F000111D57DE
:1005600017030000600001E0000FE0007FE000FFE3
:10057000E00001E00001E00001E00001E00001E036
:100580000001E00001E00001E00001E00001E00006
:1005900001E00001E00001E00001E00001E00001F5
:1005A000E00001E00001E00001E00001E00001E006
:1005B0000003F0003FFE007FFF80111D5716020070
:1005C00001F80007FE001C1F00380F00780F807034
:1005D0000780F00780E00780000780000780000F99
:1005E00000000F00001E00001E00003C000078000C
:1005F00000F00000F00001E00003C0000780000FE1
:1006000000000F00001E00803C0080780080F00198
:1006100080FFFF80FFFF80121D5716010001F800C8
:1006200007FE001E1F003C0F00380780780780700F
:100630000780000780000700000F00001E00003C3C
:100640000000F80003FE00003F00000F800007805C
:100650000003C00003C00003C00003C00003C000CB
:1006600003C0000780800780E00F00783E003FFC59
:100670000007E000131D57170100000300000F00E2
:10068000001F00003F00007F00007F0000EF00001F
:10069000CF0001CF00038F00038F00070F000E0F64
:1006A000000E0F001C0F00180F00380F00700F0015
:1006B000700F00FFFFE0FFFFC0000F00000F000001
:1006C0000F00000F00000F00000F00003F8001FF2F
:1006D000E0121D571702000000800001801FFF007C
:1006E0001FFE001800001800001800001800003855
:1006F00000003800003800003FF0003FFC00783F69
:1007000000200F000007800007C00003C00003C0E6
:100710000003C00003C00003C00003800007808006
:100720000780E00F00783E003FFC0007F000121D3C
:1007300057170300000700003F0000F80001E00029
:1007400003C0000F00000E00001E00003C00003837
:10075000000078000078F80077FE00FE1F00F80F18
:1007600080F00780F007C0F003C0F003C0F003C0C2
:10077000F003C0F803C07803807803803C07803C16
:1007800007001F0E000FFC0003F000131B5117029F
:10079000007FFFC07FFFE06001C04003C0C0038056
:1007A000000380000700000700000E00000E00009C
:1007B0001C00001C000038000038000038000070E9
:1007C0000000700000E00000E00001C00001C00077
:1007D00003C0000780000780000F00000F00001C0E
:1007E0000000121D5716020003F8000FFE001C1F28
:1007F00000380F0030078070078070078070078016
:10080000700700780F003E1E001FBC000FF00003B1
:10081000FC0007FE001E3F003C0F807807C07007F9
:10082000C0F003C0F003C0F003C0F003C0F00380C9
:100830007807807C07003E0E001FFC0007E00013D5
:100840001E5A1702FF01F80007FE000E1F001C0FC2
:10085000803807807803C07003C0F003E0F001E047
:10086000F001E0F001E0F001E0F801E07803E07C65
:1008700007E03E0DE01FF9E007E1C00003C0000300
:10088000C0000780000780000F00001E00003C0031
:1008900000780000F00003E0001F80003800000630
:1008A00017170B03FF387CFCFCF8700000000000F9
:1008B000000000000000387CFCFCF870071D1D0BD8
:1008C00002F91C3E7E7E7C38000000000000000023
:1008D0000000083CFEFE1E1E1E1C1C38306040132B
:1008E0000F2D1501060000600003C0001FC0007F2F
:1008F0000003FC001FE0007F00007C0000FE000001
:100900003FC00007F00001FE00003FC00007E0000C
:10091000018013091B1501097FFFE0FFFFC00000E4
:10092000000000000000000000000000007FFFE069
:10093000FFFFC0130F2D150106300000FC00007FE3
:1009400080000FF00003FE00007F80000FE0000336
:10095000C0001FC000FF0003F8001FC0007F0000A0
:10096000780000C0000011246C1502FF03F8000F8E
:10097000FE003C3F00780F00780F80F00780F00702
:1009800080F00780E00780000780000F00000F0064
:10099000001E00001E00003C0000780000700000F7
:1009A000E00001E00001C00003C0000380000380FC
:1009B00000038000038000038000000000000000AE
:1009C00000000000000001C00003E00007E0000795
:1009D000E00007C0000380002427C32701F80000BF
:1009E000FF80000007FFE000001F01F80000780012
:1009F0003E0000E0001F0001C0000F00078000075C
:100A00008007000003C00E000001C01C007C21E034
:100A10001C01FF60E0380387E0E0380703E0E0787E
:100A20000E01E0F0700E01E070701E01E070F01C2D
:100A300001E070F03C01E070F03C01E070F03C013E
:100A4000E070F03C01E070F03C01E070F03C01E04F
:100A500060F83C01E0E0F83E01E0C0781E01E0C033
:100A6000781F03E1807C0F05E1003C0F8DF2003E12
:100A700007F8FC001F01E070001F000000000F805D
:100A800000000007C000010003F000038001F8002F
:100A90000E00007F00FC00001FFFF0000003FF00BD
:100AA000001C1E781D00000002000000070000006E
:100AB0000F0000000F0000001F8000001F800000DA
:100AC0001B8000003BC0000039C0000031E0000086
:100AD00071E0000070E0000060F00000E0F0000055
:100AE000E0700000C0780001C0780001C03800014B
:100AF000FFFC0003FFFC0003801E0003001E000734
:100B0000001E0007000F0006000F000E000F000E71
:100B10000007800C0007803E0007C0FFC03FF018B0
:100B20001E5A1B000007FE00FFFFC06F07E00F0109
:100B3000F00F00F80F00780F00780F00780F0078A2
:100B40000F00700F00F00F01E00F07C00FFFC00F84
:100B5000FFF00F01F80F007C0F003E0F001E0F008A
:100B60001F0F000F0F000F0F000F0F000F0F000ED1
:100B70000F001E0F003C0F00F83FFFF07FFF8017B3
:100B80001E5A1A0100001FE000FFFC01C0FC078094
:100B9000380E00100E00001C000038000038000065
:100BA000780000700000700000F00000F00000F01D
:100BB0000000F00000F00000F00000F00000F00085
:100BC000007800007800007C00003C00001E00045B
:100BD0001F000E0F803807E0F001FFC0007F0019F2
:100BE0001E781C010007FE0000FFFFC0006F03F02D
:100BF000000F00F8000F007C000F003E000F001EE9
:100C0000000F001F000F000F000F000F000F000F5C
:100C1000800F0007800F0007800F0007800F00077C
:100C2000800F0007800F0007800F0007800F00076C
:100C3000800F0007000F000F000F000F000F001EB5
:100C4000000F001E000F003C000F007C000F00F89A
:100C5000000F03E0003FFFC0007FFE0000151E5A9A
:100C6000180100FFFFE07FFFF01E00601E00601E05
:100C700000601E00601E00001E00001E00001E001E
:100C8000001E00001E00001E00001FFF801FFF80CE
:100C90001E03001E00001E00001E00001E00001E9D
:100CA00000001E00001E00001E00001E00081E00A6
:100CB000181E00181F00387FFFF0FFFFF0141E5AA7
:100CC000170100FFFFF07FFFF01E00601E00601E96
:100CD00000201E00201E00001E00001E00001E003E
:100CE000001E00001E00001E00001FFF001FFF006E
:100CF0001E06001E00001E00001E00001E00001E3A
:100D000000001E00001E00001E00001E00001E004D
:100D1000001E00001E00007F8000FFE000181E5A29
:100D20001C0200001FE000FFF801C0FC0780380F24
:100D300000101E00001C0000380000380000780081
:100D400000700000F00000F00000F00000F0000073
:100D5000F00000F007FFF000FEF0003CF0003CF86F
:100D6000003C78003C78003C3C003C3E003C1E00CF
:100D70003C0F003C07C0F803FFE0007F001B1E781B
:100D80001F0200FFC07FE07F803FC01E000F001EDB
:100D9000000F001E000F001E000F001E000F001E9F
:100DA000000F001E000F001E000F001E000F001E8F
:100DB000000F001E000F001E000F001FFFFF001F8E
:100DC000FFFF001E000F001E000F001E000F001E80
:100DD000000F001E000F001E000F001E000F001E5F
:100DE000000F001E000F001E000F001E000F001E4F
:100DF000000F007F001FC0FFC07FE00A1E3C0E02F4
:100E000000FFC07F801E001E001E001E001E001E70
:100E1000001E001E001E001E001E001E001E001EE2
:100E2000001E001E001E001E001E001E001E001ED2
:100E3000001E001E001E001E007F80FFC0112672D3
:100E40000FFCF807FF8000FF00003C00003C0000A2
:100E50003C00003C00003C00003C00003C00003C2A
:100E600000003C00003C00003C00003C00003C0056
:100E7000003C00003C00003C00003C00003C000046
:100E80003C00003C00003C00003C00003C00003CFA
:100E900000003C00003C00003C000038000038002E
:100EA00000380000700000700000E00070C000FF1B
:100EB00000007C00001A1E781C0100FFC1FF807F2B
:100EC000807C001E0078001E00F0001E01E0001E65
:100ED00001C0001E0380001E0700001E0E00001E41
:100EE0001C00001E3800001E7800001E7000001E4E
:100EF000E000001FE000001EF000001E7800001E51
:100F00007C00001E3E00001E1E00001E0F00001E82
:100F10000780001E07C0001E03E0001E01F0001E37
:100F200000F8001E007C001E007E007F803FC0FF96
:100F3000C01F00151E5A170100FFC0007F80001E51
:100F400000001E00001E00001E00001E00001E000B
:100F5000001E00001E00001E00001E00001E0000FB
:100F60001E00001E00001E00001E00001E00001ECD
:100F700000001E00001E00001E00001E00001E00DB
:100F8000001E00081E00181E00181F00307FFFF012
:100F9000FFFFF0241E962701007F00000FE01F8056
:100FA000001F800F80001F000F80003F000FC00057
:100FB0003F000FC00037000FE00077000EE0007721
:100FC000000EF000E7000EF000E7000E7800C7000A
:100FD0000E7801C7000E3801C7000E3C0387000ED3
:100FE0001C0387000E1E0707000E1E0707000E0FCA
:100FF0000607000E0F0E07000E070E07000E079CD7
:1010000007000E039C07000E03D807000E03F80725
:10101000000E01F807000E01F007000E00F00700B7
:101020000E00E007003F00E01FC0FFC0607FF01B24
:101030001E781F0200FC003FE07C000F801E0007AE
:10104000001F0007001F0007001F8007001FC007C8
:10105000001DC007001CE007001CF007001C7807FB
:10106000001C3807001C3C07001C1E07001C0E0754
:10107000001C0F07001C0787001C0787001C03C704
:10108000001C01E7001C01E7001C00F7001C007FAA
:10109000001C007F001C003F001C001F001C001FE4
:1010A000001C000F003E000700FF800300191E789F
:1010B0001D0200003F000000FFE00003C1F0000738
:1010C00000F8000E007C001C003E003C001E0038B2
:1010D000001F0078000F0078000F0070000F80F0F4
:1010E000000780F0000780F0000780F0000780F024
:1010F000000780F0000780F0000780F0000780F80C
:1011000000070078000F0078000F007C000E003C04
:10111000001C003E001C001F0038000F80700007FC
:10112000C1E00003FF800000FE0000161E5A1901F6
:101130000007FE00FFFFC06F07E00F01F00F00F88F
:101140000F007C0F003C0F003C0F003C0F003C0FD9
:10115000003C0F003C0F00780F00780F00F00F8369
:10116000E00F7FC00F3E000F00000F00000F0000D7
:101170000F00000F00000F00000F00000F00000F15
:1011800000000F00003FC0007FF0001C25941D02EE
:10119000F9003F000000FFE00003C1F0000700F885
:1011A000000E007C001C003E003C001E0038001FAA
:1011B0000078000F0078000F0070000F80F000072B
:1011C00080F0000780F0000780F0000780F0000743
:1011D00080F0000780F0000780F0000780F800072B
:1011E0000078000F0078000F007C000E003C001E0D
:1011F000003E001C001F0038000F80700007C1E097
:101200000003FFC000007F80000003C0000001E079
:10121000000000F81000007C3000001FE000000F0C
:10122000E0000003801A1E781B010007FE0000FF8B
:10123000FFC0006F07E0000F01F0000F00F0000F8B
:101240000078000F0078000F0078000F0078000F82
:101250000078000F0070000F00F0000F01E0000F99
:1012600003C0000FFF00000FFE00000F0E00000F74
:101270000700000F0780000F0380000F03C0000F5E
:1012800001C0000F01E0000F00F0000F00F0000FA0
:101290000078000F007C000F003E003FC03FC07F81
:1012A000E01F00121E5A17030003F8001FFE003C47
:1012B0003F00780E00700400F00000F00000F00025
:1012C00000F80000FC00007F00007FC0003FF0003D
:1012D0001FF80007FE0001FF00007F80001F800054
:1012E0000FC00007C00003C00003C00003C080039C
:1012F00080C00380E00700F00F00FC3E00FFF80014
:101300000FE0001A1E781A00007FFFFFC07FFFFF6A
:10131000C0601E0180C01E0180C01E0180801E00B2
:1013200080001E0000001E0000001E0000001E00C5
:1013300000001E0000001E0000001E0000001E0035
:1013400000001E0000001E0000001E0000001E0025
:1013500000001E0000001E0000001E0000001E0015
:1013600000001E0000001E0000001E0000001E0005
:1013700000001E0000001E0000007F800001FFE052
:10138000001B1E781F0200FFC07FE07F803FC01E51
:10139000000F001E000F001E000F001E000F001E99
:1013A000000F001E000F001E000F001E000F001E89
:1013B000000F001E000F001E000F001E000F001E79
:1013C000000F001E000F001E000F001E000F001E69
:1013D000000F001E000F001E000F001E000F001E59
:1013E000001E000F001E000F001E0007803C0007BB
:1013F000C0780003E0F00001FFE000003F80001E25
:101400001E781F0000FFE00FFC1F0001F00F00001E
:10141000E00F0001C0070001C0078001C007800382
:101420008003C0038003C0038003C0070001E007FE
:101430000001E0060000E00E0000F00E0000F00CDD
:101440000000781C0000781C0000783800003C3850
:1014500000003C3800001C7000001E7000001E7070
:1014600000000FE000000FE000000FE0000007C0E8
:10147000000007C0000003800000030000281E9643
:10148000290000FFE01803FF3F001800FC0E001CBD
:1014900000300F003C00700F003C00700F003E0059
:1014A0007007007E006007007F00E007807F00E09B
:1014B00007806700E00780E780E00380E780C003E3
:1014C000C0C381C003C1C3C1C003C1C3C1C001C186
:1014D00081C1C001C381E18001E381E38001E300B8
:1014E000E38001E700F38000E700F38000F600737B
:1014F0000000FE007F0000FE003F00007C003F0077
:10150000007C003E00007C001E00007C001E0000ED
:1015100078001E0000300008001C1E781E0100FF2D
:10152000E0FFE0FFE0FFE03F001F001F001E000F94
:10153000801C000780380003C0780003E0700001C1
:10154000E0E00000F1E00000F9C000007F80000052
:101550003F8000001F0000001F0000001F0000006F
:101560003F8000003FC0000073E00000F1E0000099
:10157000E0F00001C0F80003C0780003803C0007E1
:10158000003E000F001F000E000F003E000FC0FFC6
:10159000C07FF0FFC07FF01C1E781D0000FC003FE4
:1015A000F0FE003FF01F000F800F0007000F800EBD
:1015B0000007C00E0003C01C0003E03C0001E0383F
:1015C0000000F0780000F870000078E000007DE096
:1015D00000003DC000003FC000001F8000001F80D1
:1015E00000000F0000000F0000000F0000000F00BF
:1015F00000000F0000000F0000000F0000000F00AF
:1016000000000F0000000F0000000F0000003FC0AE
:101610000000FFF000161E5A1901003FFFFC3FFFBB
:10162000FC3800783000F83001F02001E02003E0C1
:101630000003C0000780000F80000F00001F0000A3
:101640001E00003C00007C0000780000F80001F063
:101650000001E00003E00003C0000780000F8000ED
:101660000F00041F000C3E000C3C000C7C001C7F93
:10167000FFFCFFFFFC0B2D5A0F03F8FFE0FFE0F02B
:1016800000F000F000F000F000F000F000F000F0DA
:1016900000F000F000F000F000F000F000F000F0CA
:1016A00000F000F000F000F000F000F000F000F0BA
:1016B00000F000F000F000F000F000F000F000F0AA
:1016C00000F000F000F000F000F000F000F000F09A
:1016D00000FFE0FFE0142E8A1701F8E00000700020
:1016E000007000007800003800003800001C000086
:1016F0001C00001E00000E00000E00000F0000077E
:10170000000007000007800003800003C00001C044
:101710000001C00001E00000E00000E00000F00077
:10172000007000007000003800003800003C00002D
:101730001C00001C00001E00000E00000E00000730
:10174000000007000007800003800003800003C042
:101750000001C00001C00001E00000E00000F00056
:1017600000700000300B2D5A0F01F8FFE0FFE00180
:10177000E001E001E001E001E001E001E001E00161
:10178000E001E001E001E001E001E001E001E00151
:10179000E001E001E001E001E001E001E001E00141
:1017A000E001E001E001E001E001E001E001E00131
:1017B000E001E001E001E001E001E001E001E00121
:1017C000E0FFE0FFE013174518020D002000007055
:1017D0000000F00001F00001F80001F80003BC0077
:1017E00003BC00073C00071E00061E000E0E000E84
:1017F0000F000C0F001C07801C07801803803803A3
:10180000C03003C07001E07001E06000E0C000C0C3
:101810001402061701FB7FFFF0FFFFF0090A140F07
:101820000119F000F80078003C001C000E000700D1
:1018300003000180018014164216020001F8000F17
:10184000FE001C1E00780F00700F00F00F00800FCC
:1018500000000F00000F0000FF0007FF001F8F00B7
:101860003E0F00780F00F80F00F00F00F00F00F0AF
:101870001F00F03F0078EF207F8FF01E07801624B6
:101880006C1800000600007E0000FE00001E000034
:101890001E00001E00001E00001E00001E00001E94
:1018A00000001E00001E00001E00001E00001E0F93
:1018B000801E3FE01E7FF01EE3F01FC0F81F80F87F
:1018C0001F007C1E007C1E003C1E003C1E003C1EB7
:1018D000003C1E003C1E003C1E00381E00381E004E
:1018E000701E00601F00E00FC1C003FF0000FC007D
:1018F000121642150200007F0003FFC00707C00E4A
:1019000001801C0080380000780000700000F000AA
:1019100000F00000F00000F00000F00000F0000017
:10192000F800007800007800003C00403E01C01F35
:10193000838007FE0001F80017246C1902000000E4
:10194000E0000FE0000FE00001E00001E00001E036
:101950000001E00001E00001E00001E00001E00022
:1019600001E00001E00001E000FDE003FFE00F0FF7
:10197000E01C03E03C01E03801E07801E07001E0A8
:10198000F001E0F001E0F001E0F001E0F001E0F052
:1019900001E0F001E07801E07801E07C03E03E0541
:1019A000E41F19FE0FF0F807C0E0121642160200FD
:1019B00000F80007FE000E0F001C07803807803873
:1019C00003C07003C07003C0FFFFC0FFFF80F000C2
:1019D00000F00000F00000F00000F80000780000C7
:1019E0007800007C00C03E01801F07000FFE00034E
:1019F000F80013246C0F0000000F80003FE000632C
:101A0000C001C18003800003800007800007000040
:101A10000F00000F00000F00000F00000F00000F6C
:101A200000003FFE00FFFC000F08000F00000F0049
:101A3000000F00000F00000F00000F00000F00005B
:101A40000F00000F00000F00000F00000F00000F3C
:101A500000000F00000F00000F00000F00001FE04B
:101A6000007FF8001821631800F500FC0203FF7ED8
:101A70000707FC0E03E01E01E01C01F03C00F03CF7
:101A800000F03C00F03C00F03E00E01F01C00F837E
:101A90008007FF0001FC0003C0000780000F8000EA
:101AA0000FE00007FF8003FFF007BFFC0E00FE3CC5
:101AB000001F78000FF0000FF0000FF0000EF8008C
:101AC0001C7C00383F80F00FFFC001FE0017246C23
:101AD0001A02000600007E0000FE00003E00001E0C
:101AE00000001E00001E00001E00001E00001E0060
:101AF000001E00001E00001E00001E00001E0780C9
:101B00001C1FE01C31E01C60F01CC0F01D80F01FA9
:101B100000F01F00F01E00F01E00F01E00F01E007E
:101B2000F01E00F01E00F01E00F01E00F01E00F07F
:101B30001E00F01E00F01E00F03F83F8FFC7FE0AF3
:101B400020400D02001C001E003E003E001C000054
:101B500000000000000000000006007E00FE003EC5
:101B6000001E001E001E001E001E001E001E001E85
:101B7000001E001E001E001E001E001E001E001E75
:101B8000003F00FFC00E2B560CFBF50038003C0058
:101B90007C007C0038000000000000000000000015
:101BA0000C00FC01FC007C003C003C003C003C00C4
:101BB0003C003C003C003C003C003C003C003C0045
:101BC0003C003C003C003C003C003C003C003C0035
:101BD00038003800780070007030E07F80FF007CB3
:101BE0000017246C1801000600007E0000FE0000B3
:101BF0003E00001E00001E00001E00001E00001E11
:101C000000001E00001E00001E00001E00001E003E
:101C1000001E07FC1E01F01E01C01E03801E0700EF
:101C20001E0E001E38001E70001EE0001FE0001E89
:101C3000F0001EF8001E78001E3C001E1E001E0F45
:101C4000001E0F801E07C01E03E01E01E03F00FEC5
:101C5000FFC07C0C24480D010003003F007F001FE3
:101C6000000F000F000F000F000F000F000F000FFC
:101C7000000F000F000F000F000F000F000F000FEC
:101C8000000F000F000F000F000F000F000F000FDC
:101C9000000F000F000F000F000F000F001F80FF4C
:101CA000F024166E2702000C07C07C00FE1FE0FF28
:101CB000003E31E38F001E60F707801EC0FE0780E4
:101CC0001F80FC07801F00F807801F00F807801E98
:101CD00000F007801E00F007801E00F007801E0045
:101CE000F007801E00F007801E00F007801E00F045
:101CF00007801E00F007801E00F007801E00F0071E
:101D0000801E00F007801E00F007807F83FC1FC04C
:101D1000FFC7FE3FF01716421A02000C07C0FE0F65
:101D2000E03E31E01E60F01EC0F01E80F01F00F0AB
:101D30001F00F01E00F01E00F01E00F01E00F01E3E
:101D400000F01E00F01E00F01E00F01E00F01E004D
:101D5000F01E00F01E00F07F83F8FFC7FE1416424D
:101D600018020000FC0007FF000E0F801C07C0389F
:101D700003C03803E07001E07001F0F000F0F00003
:101D8000F0F000F0F000F0F000F0F000F0F800E00B
:101D90007801E07C01C03C01C03E03801F07000FBA
:101DA000FE0003F0001521631902F50C0780FE1FE9
:101DB000C03E23E01E41F01E81F01F00F01F00F81E
:101DC0001E00F81E00781E00781E00781E00781E87
:101DD00000781E00781E00701E00701E00E01E00BD
:101DE000E01F01C01FC3801EFF001E3E001E00003A
:101DF0001E00001E00001E00001E00001E00001E2F
:101E000000001E00001E00007F0000FFE000162101
:101E1000631902F500FC3003FF60070FE01E03E0CA
:101E20001C01E03801E07801E07001E0F001E0F031
:101E300001E0F001E0F001E0F001E0F001E0F0018C
:101E4000E07801E07801E07C03E03E07E01F1DE060
:101E50000FF9E003E1E00001E00001E00001E00033
:101E600001E00001E00001E00001E00001E000010C
:101E7000E00003F0001FFC111642130100040F00E4
:101E80007E3F80FE7F801EE3801EC3801F81001F77
:101E900080001F00001F00001E00001E00001E002A
:101EA000001E00001E00001E00001E00001E00009C
:101EB0001E00001E00001E00003F8000FFE0000F1B
:101EC000162C1302000FC03FF878787038F010F02D
:101ED00000F800FC007F003FC01FF007F801FC0085
:101EE0007E003E801E801EC01EE03CF078FFF01F8A
:101EF000C0101E3C110000030007000F000F000F70
:101F0000000F000F000F003FFFFFFF0F040F000F37
:101F1000000F000F000F000F000F000F000F000F49
:101F2000000F000F000F000F000F000F01078707C1
:101F3000FE03F0181642190100060070FE07F07E3D
:101F400007F01E00F01E00F01E00F01E00F01E0044
:101F5000F01E00F01E00F01E00F01E00F01E00F04B
:101F60001E00F01E00F01E00F01E00F01E01F01F0B
:101F700002F00F0CFF0FF8FC03E070171642180078
:101F800000FFC0FE3E003C1E00381E00300F0070F7
:101F90000F00700700600780E00780C003C1C00326
:101FA000C1C001C18001E38001E30000F30000F73C
:101FB00000007600007E00007E00003C00003C0037
:101FC00000100021166E220000FFC0603F803E001E
:101FD000E00F001E00E00E001E00F00E000E01F0EB
:101FE0000C000F01F00C000F01F81C000703F81C97
:101FF00000070338180007833C180003871C3800CB
:1020000003861E300003C61E300001CE0E70000194
:10201000CC0F600001FC0F600001FC07600000F8BD
:1020200007E00000F807C00000F003C000007003E4
:10203000C00000600300001816421800007FE3FE95
:102040007FE3FE1F80F80F80E00780C003C1C0015E
:10205000E38000F70000FE00007C00003C00003E32
:1020600000007F0000EF0001C7800383C00301E090
:102070000700F00E00F83E00FCFF83FFFF83FF180F
:10208000216318FFF57FE0FF1F003E0F001C0F00CB
:102090001807803807803803803003C07003C060A1
:1020A00001E0E001E0E000E0C000F1C000F1C000AC
:1020B0007980007B80003B00003F00003F00001E55
:1020C00000001E00000C00000C00001C00001800A6
:1020D00000380000700000700000E0003FC0007F8A
:1020E0008000FF00007C00001116421502007FFFF7
:1020F000807FFF80600F00600F00401E00403C00AA
:10210000003C0000780000F00000F00001E0000357
:10211000C00003C0000780000F00000E00001E007A
:10212000803C0080780080780180FFFF80FFFF8086
:102130000D2D5A1002F900080038007001E001C0AE
:10214000038003800780078007800780078007C01F
:1021500003C003C003C003C003C00380078007009F
:102160001E007E00FF00078003C003C003C003C041
:1021700003C003C003C007C0078007800780078033
:1021800007800780038003C001C000E000780018CA
:102190000431310B04F670F0F0F0F0F0F0F0F0F0F4
:1021A000F0F0F0F0F0F0F0F0F0F0F0F0F0F0F0F02F
:1021B000F0F0F0F0F0F0F0F0F0F0F0F0F0F0F0F01F
:1021C000F0F0F0F0F0F0E00D2D5A1001F9C000F041
:1021D0000038001C001E000E000F000F000F000F43
:1021E000000F000F001F001E001E001E001E001E1C
:1021F000001E001E000F0007F003F803C007000FC9
:10220000000E001E001E001E001E001E001F000FFC
:10221000000F000F000F000F000E001E001C003802
:10222000007000E000800015081817010B078008F7
:102230000FE0181FF0103FFC3031FFE0607FC0401E
:102240001F80C00F00FFFFFFFFFFFFFFFFFFFFFF2B
:10225000FFFFFFFFFFFFFFFFFFFFFFFFFFFFFFFF8E
:10226000FFFFFFFFFFFF0000000B00000623230D10
:1022700003F3387CFCFCFCF8700010383838383830
:102280003838383838383838383878787878787C4A
:102290007C7C7C7860121E5A1702FF006000006090
:1022A0000000600000600000FF0003FF800FFFC01F
:1022B0001E63803C6180386100786000706000F0CF
:1022C0006000F06000F06000F06000F06000F0601E
:1022D00000F860007860007C60C03E61803FE7806D
:1022E0001FFF000FFC0003F800006000006000000A
:1022F0006000006000131D57170200007F0001FFFF
:10230000E00383E00701C00600C00E00C00E00C05D
:102310001E00401E00001E00001E00001E00001EC9
:1023200000001E0000FFF800FFF8001E00001E0065
:10233000001E00001E00001E00001C00001C0020EB
:102340001C00201800603800E03FFFE07FFFE0C085
:10235000FFE00F0F1E1704078002C00667CC3FF88E
:102360003838701C600C600C600C600C3018383809
:102370007FFCE7CEC006191C7017FE007E00FF80B0
:10238000FE003F801F001E000F803C0007C0780049
:1023900003C0700003E0F00001E0E00000F1E000A5
:1023A00000F1C000007BC000007F8000003F000003
:1023B000003F0000001E0000001E00000FFFFC0098
:1023C0000FFFFC00001E0000001E0000001E0000A9
:1023D000001E0000001E0000001E0000001E000085
:1023E000001E0000007F800001FFE0000431310B7F
:1023F00004F670F0F0F0F0F0F0F0F0F0F0F0F0F043
:10240000F0F0F0F0F0F0F0E0000000000070F0F00C
:10241000F0F0F0F0F0F0F0F0F0F0F0F0F0F0F0F0BC
:10242000F0F0E013226618020001F80007FE001E1B
:102430001F003C07003C06003C00003E00003F003F
:10244000001F80001FE0001FF8003FFC0079FF0024
:10245000F07F80F03FC0F00FC0F007E0F803E07CB1
:1024600001E07E01E03F81C01FE1C007FB8003FF68
:102470000000FF00003F80000F80100780100780E1
:102480001807801C07001E0F001FFE0003F0000F3E
:10249000050A13021B700EF01EF01EF01EE01C1E3B
:1024A0001E78220200001FE00000FFFC0001E01E79
:1024B00000078007800E0001C01C03F0E0180FFC2D
:1024C00060303C3C307070083860E0001861E0001B
:1024D00018C1E0000CC3C0000CC3C0000CC3C00096
:1024E0000CC3C0000CC3C0000CC3C0000CC3E00090
:1024F0000C61E0001861F0081870F80C38307C307E
:1025000030183FE0601C0F80E00E0001C00780071C
:102510008001E01E0000FFFC00001FE0000B0F1E0A
:102520000C010E0F001F0033806180618003801D4D
:10253000806180C180C180EF80FDE07980FFC0FFB5
:10254000C012153F1702000080400180C0030180C7
:102550000703000E07000E0E001C1E003C3C007816
:102560003C00F07800F07800F87800783C003C3CC3
:10257000001C1E000E0E000E070007030003018062
:102580000180C0008040140A1E1701047FFFF0FF85
:10259000FFF000007000007000007000007000008C
:1025A000700000700000700000600E020410010B4B
:1025B0007FFCFFF80F112211011107C01FF03838FE
:1025C000600C4F84C446844284C2878285828482A0
:1025D000C4C644646A3C38381FF007C010020418AF
:1025E000041C7FFFFFFE0B0B161103120F003FC0F0
:1025F00071E060E0E0E0E0E0E0E0E0C0F1807F007A
:102600003E0011164214010300C00001C00001C0C9
:102610000001C00001C00001C00001C00001C000F5
:10262000FFFF80FFFF8001C00001C00001C000016A
:10263000C00001C00001C00001C000000000000097
:10264000000000007FFF80FFFF800D112211020FAC
:1026500007C01FF070F86078E0780078007000E044
:1026600001E003C007800F001E003C087818FFF847
:10267000FFF80E122410010E0F803FE071F0E0F021
:10268000C0F000F001E007800FE001F00078003CAE
:10269000003C003C8078E0F83FE00F800A0A140F0D
:1026A0000519078007C00F000F001E003C0038000E
:1026B00070006000C0001921841A01F5060018009E
:1026C000FE00F8007E0078001E0078001E007800F2
:1026D0001E0078001E0078001E0078001E007800A2
:1026E0001E0078001E0078001E0078001E00780092
:1026F0001E0078001E0078001F00F8001F01F8007F
:102700001F83F8001FFF79001BFE7F8019FC7E00ED
:1027100018F0380018000000180000001800000031
:102720001C0000001C0000001C0000001E00000037
:102730001E0000001F0000001F0000001800000025
:1027400017246C1A01FA01FFFE0FFFFE1F07FC3C65
:102750000770780770780770F00770F00770F0075F
:1027600070F00770F00770F807707807707C0770DA
:102770003E07701F87700FFF7001FF700007700029
:1027800007700007700007700007700007700007EF
:102790007000077000077000077000077000077076
:1027A000000770000770000770000770001FF80036
:1027B0003FFE04050507020E70F0F0F0E0080A0A7B
:1027C0000B02F61838303E7F0F0F1E78E00D1122F5
:1027D00010020F03801F80FF80078007800780079B
:1027E00080078007800780078007800780078007B1
:1027F000800FC07FF80C0F1E0E010E0F803FC031FE
:10280000E06060C070C030C030C030E030E0607860
:10281000C03F801F00FFF0FFF012153F170300407C
:102820004000E06000603000301800381C001C0ED2
:10283000000E0F000F078007878007C3C003C3C0C7
:1028400007C3C00787800F07801E0F001C0E0038CB
:102850001C00303800703000606000C04000181D5F
:10286000571C02000400043C000ECC00180C003879
:102870000C00300C00700C00E00C00C00C01C00C0F
:1028800003800C03000C07000C06007F8E00001C68
:102890000000180400381C00701C00602C00E06C64
:1028A00001C04C01C08C03810C03030C0703FF0E15
:1028B00007FE0C000C1C000C38007F181D571C0272
:1028C000000400063C000ECC001C0C00180C003864
:1028D0000C00700C00700C00E00C00C00C01C00C6F
:1028E00003800C03000C07007F8E00000E00001C0C
:1028F0003C0018FF0039C700738300630300E00247
:1029000001C0040180080380100700200700410E69
:1029100000810C01FF1C01FF191D741C01000F80B8
:1029200003001FC0070031C00E0070C00C0000C0C3
:102930001C00018018000F00380001C0700000C0AA
:10294000600000C0E00000C1C00000C18000C1C341
:1029500080007F8700001E070000000E0200000CB0
:102960000E00001C0E00003816000030260000701B
:10297000660000E0C60000E0860001C18680038397
:10298000FF000380060007000600060006000E0098
:102990003F801123691502F300E00001F00003F00D
:1029A0000003F00003E00001C00000000000000090
:1029B00000000000E00000E00000E00000E0000097
:1029C000E00001E00001C00003C000038000070038
:1029D000000F00001E00003C00003C0000780000DA
:1029E000780000F00000F00380F00780F00780F02E
:1029F0000780F80F00780F007E1E003FF8000FE000
:102A0000001C29A41D00000080000001C00000037C
:102A1000F0000001F80000007C0000001F00000032
:102A20000780000001C000000080000000000000DE
:102A30000000000002000000070000000F0000007E
:102A40000F0000001F8000001F8000001B8000009E
:102A50003BC0000039C0000031E0000071E0000020
:102A600070E0000060F00000E0F00000E0700000A6
:102A7000C0780001C0780001C0380001FFFC0003ED
:102A8000FFFC0003801E0003001E0007001E00075D
:102A9000000F0006000F000E000F000E0007800C54
:102AA0000007803E0007C0FFC03FF01C29A41D00A6
:102AB0000000002000000038000000FC000001F8C9
:102AC000000003E000000F8000001E00000038003E
:102AD00000002000000000000000000000000200D4
:102AE0000000070000000F0000000F0000001F8022
:102AF00000001F8000001B8000003BC0000039C0A8
:102B0000000031E0000071E0000070E0000060F0C3
:102B10000000E0F00000E0700000C0780001C07824
:102B20000001C0380001FFFC0003FFFC0003801E11
:102B30000003001E0007001E0007000F0006000F24
:102B4000000E000F000E0007800C0007803E0007FB
:102B5000C0FFC03FF01C29A41D00000006000000BB
:102B60000F0000001F8000003FC0000079E000005F
:102B7000F0F00001C03800018018000100100000D2
:102B8000000000000000000002000000070000003C
:102B90000F0000000F0000001F8000001F800000D9
:102BA0001B8000003BC0000039C0000031E0000085
:102BB00071E0000070E0000060F00000E0F0000054
:102BC000E0700000C0780001C0780001C03800014A
:102BD000FFFC0003FFFC0003801E0003001E000733
:102BE000001E0007000F0006000F000E000F000E71
:102BF0000007800C0007803E0007C0FFC03FF01CAC
:102C0000279C1D000000100800007C0C0000FE1C2A
:102C10000001FFF8000187F0000303E0000201005B
:102C2000000000000000000000000200000007009B
:102C300000000F0000000F0000001F8000001F8038
:102C400000001B8000003BC0000039C0000031E0E4
:102C5000000071E0000070E0000060F00000E0F0B3
:102C60000000E0700000C0780001C0780001C038AA
:102C70000001FFFC0003FFFC0003801E0003001E98
:102C80000007001E0007000F0006000F000E000FD7
:102C9000000E0007800C0007803E0007C0FFC03F09
:102CA000F01C26981D00000080200000E038000184
:102CB000E0780001E0780001E0780000802000006A
:102CC00000000000000000000200000007000000FB
:102CD0000F0000000F0000001F8000001F80000098
:102CE0001B8000003BC0000039C0000031E0000044
:102CF00071E0000070E0000060F00000E0F0000013
:102D0000E0700000C0780001C0780001C038000108
:102D1000FFFC0003FFFC0003801E0003001E0007F1
:102D2000001E0007000F0006000F000E000F000E2F
:102D30000007800C0007803E0007C0FFC03FF01C6A
:102D40002AA81D000000020000000F8000001FC024
:102D5000000018C0000030C0000030C0000030C0CB
:102D600000003F8000001F0000000800000000007D
:102D700000000000000002000000070000000F003B
:102D800000000F0000001F8000001F8000001B805B
:102D900000003BC0000039C0000031E0000071E0DD
:102DA000000070E0000060F00000E0F00000E07063
:102DB0000000C0780001C0780001C0380001FFFCAD
:102DC0000003FFFC0003801E0003001E0007001E1E
:102DD0000007000F0006000F000E000F000E000796
:102DE000800C0007803E0007C0FFC03FF0241E9605
:102DF000250000007FFFFFC0001FFFFFE00007FC71
:102E000000C000073C00C000073C00C0000E3C00B2
:102E1000C0000E3C0000001E3C0000001C3C0000F6
:102E2000001C3C0000003C3C000000383C0000005E
:102E3000783C0000007FFFFF00007FFFFF0000F0F4
:102E40003C060000E03C000001E03C000001C03C0A
:102E5000000001C03C000003803C000003803C00F7
:102E60000007803C000007003C000007003C001009
:102E70000E003C00300E003C00301E003E00703E54
:102E8000007FFFE0FFC1FFFFE01628781A02F6007E
:102E90001FE000FFFC01C0FC0780380E00100E0090
:102EA000001C0000380000380000780000700000AE
:102EB000700000F00000F00000F00000F00000F0F2
:102EC0000000F00000F00000F00000F800007800C2
:102ED000007C00003C00003E00081F003C0F80F01A
:102EE0000FFFE003FF8000FE00001800001000004C
:102EF0001C00003E00003F00000F00000F00001EFD
:102F00000000780001C00015297B180100040000B2
:102F10000E00001F00000FC00003E00000F00000E2
:102F20003C00000E00000400000000000000FFFF55
:102F3000E07FFFF01E00601E00601E00601E00604B
:102F40001E00001E00001E00001E00001E00001ECD
:102F500000001E00001FFF801FFF801E03001E00D8
:102F6000001E00001E00001E00001E00001E0000CB
:102F70001E00001E00001E00081E00181E00181F64
:102F800000387FFFF0FFFFF015297B1801000001DA
:102F9000000003C00007E0000FC0003F00007C00FD
:102FA00000F00001C000010000000000000000FF70
:102FB000FFE07FFFF01E00601E00601E00601E002C
:102FC000601E00001E00001E00001E00001E00000B
:102FD0001E00001E00001FFF801FFF801E03001E3A
:102FE00000001E00001E00001E00001E00001E004B
:102FF000001E00001E00001E00081E00181E001803
:103000001F00387FFFF0FFFFF015297B180100003B
:10301000300000780000FC0001FE0003CF0007072D
:10302000000E01801C00C0100080000000000000A5
:10303000FFFFE07FFFF01E00601E00601E00601EAC
:1030400000601E00001E00001E00001E00001E008A
:10305000001E00001E00001FFF801FFF801E0300D7
:103060001E00001E00001E00001E00001E00001EAC
:1030700000001E00001E00001E00081E00181E009A
:10308000181F00387FFFF0FFFFF0152672180100AF
:103090000401000F03C00F03C00F03C00E03800420
:1030A0000100000000000000FFFFE07FFFF01E00B5
:1030B000601E00601E00601E00601E00001E0000FA
:1030C0001E00001E00001E00001E00001E00001F4B
:1030D000FF801FFF801E03001E00001E00001E0058
:1030E000001E00001E00001E00001E00001E00004A
:1030F0001E00081E00181E00181F00387FFFF0FF7A
:10310000FFF00D29520EFF0020007000FC007E0031
:103110001F00078001E000700020000000001FF881
:103120000FF003C003C003C003C003C003C003C04B
:1031300003C003C003C003C003C003C003C003C077
:1031400003C003C003C003C003C003C003C003C067
:1031500003C003C003C00FF01FF80D29520E020078
:103160000040007001F803F007C01F003C00700031
:10317000400000000000FFC07F801E001E001E00F7
:103180001E001E001E001E001E001E001E001E004F
:103190001E001E001E001E001E001E001E001E003F
:1031A0001E001E001E001E001E001E001E007F804E
:1031B000FFC00F29520EFF00018003C007E00FF08F
:1031C0001E78383C700CE0064004000000001FF838
:1031D0000FF003C003C003C003C003C003C003C09B
:1031E00003C003C003C003C003C003C003C003C0C7
:1031F00003C003C003C003C003C003C003C003C0B7
:1032000003C003C003C00FF01FF80E264C0E0000D1
:103210004010701CF03CF03CE03840100000000012
:103220003FF01FE007800780078007800780078046
:103230000780078007800780078007800780078056
:103240000780078007800780078007800780078046
:1032500007800780078007801FE03FF0191E781C59
:10326000010007FE0000FFFFC0007F03F0000F0019
:10327000F8000F007C000F003E000F001E000F0042
:103280001F000F000F000F000F000F000F800F0036
:1032900007800F0007800F000780FFFE0780FFFCFC
:1032A00007800F0007800F0007800F0007800F00C6
:1032B00007000F000F000F000F000F001E000F008F
:1032C0001E000F003C000F007C000F00F8000F03F1
:1032D000E0001FFFC0007FFE00001B279C1F0200B4
:1032E00000201000007C0C0000FE180001FFF00020
:1032F000030FF0000303E0000201000000000000E3
:1033000000000000FC003FE07C000F801E00070072
:103310001F0007001F0007001F8007001FC00700D5
:103320001DC007001CE007001CF007001C78070008
:103330001C3807001C3C07001C1E07001C0E070061
:103340001C0F07001C0787001C0787001C03C70011
:103350001C01E7001C01E7001C00F7001C007F00B7
:103360001C007F001C003F001C001F001C001F00F1
:103370001C000F003E000700FF8003001929A41D58
:103380000200020000000380000007C0000007E008
:10339000000001F80000007C0000001E0000000793
:1033A0008000000100000000000000000000003F5D
:1033B000000000FFE00003C1F0000700F8000E006D
:1033C0007C001C003E003C001E0038001F007800FE
:1033D0000F0078000F0070000F80F0000780F000F1
:1033E0000780F0000780F0000780F0000780F00001
:1033F0000780F0000780F0000780F80007007800E1
:103400000F0078000F007C000E003C001C003E0006
:103410001C001F0038000F80700007C1E00003FF90
:10342000800000FE00001929A41D02000000800099
:103430000000E0000001F0000007F000000FC000F5
:10344000001E00000038000000E0000000800000C6
:103450000000000000000000003F000000FFE0004E
:1034600003C1F0000700F8000E007C001C003E00C5
:103470003C001E0038001F0078000F0078000F008D
:1034800070000F80F0000780F0000780F0000780D8
:10349000F0000780F0000780F0000780F000078050
:1034A000F0000780F800070078000F0078000F0098
:1034B0007C000E003C001C003E001C001F00380079
:1034C0000F80700007C1E00003FF800000FE0000D5
:1034D0001929A41D0200001C0000003E0000007E0F
:1034E0000000007F000000E3800001C1C0000380F5
:1034F000E000060070000400200000000000000052
:103500000000003F000000FFE00003C1F0000700E2
:10351000F8000E007C001C003E003C001E0038003D
:103520001F0078000F0078000F0070000F80F0007F
:103530000780F0000780F0000780F0000780F000AF
:103540000780F0000780F0000780F0000780F80097
:10355000070078000F0078000F007C000E003C0090
:103560001C003E001C001F0038000F80700007C1C7
:10357000E00003FF800000FE000019279C1D0200F0
:103580000040200001F8300003FC300003FFE000A1
:10359000061FC000040F80000C02000000000000A5
:1035A00000000000003F000000FFE00003C1F00049
:1035B0000700F8000E007C001C003E003C001E00CE
:1035C00038001F0078000F0078000F0070000F8097
:1035D000F0000780F0000780F0000780F00007800F
:1035E000F0000780F0000780F0000780F0000780FF
:1035F000F800070078000F0078000F007C000E0034
:103600003C001C003E001C001F0038000F807000B2
:1036100007C1E00003FF800000FE00001926981D8E
:103620000200010040000380E0000380E000078109
:10363000E0000380E00002008000000000000000C5
:103640000000003F000000FFE00003C1F0000700A1
:10365000F8000E007C001C003E003C001E003800FC
:103660001F0078000F0078000F0070000F80F0003E
:103670000780F0000780F0000780F0000780F0006E
:103680000780F0000780F0000780F0000780F80056
:10369000070078000F0078000F007C000E003C004F
:1036A0001C003E001C001F0038000F80700007C186
:1036B000E00003FF800000FE00000F0E1C14020655
:1036C0006006F00E781C3C381E700FE007C007C083
:1036D0000FE01E703C38781CF00E6006191F7C1D30
:1036E00002FF003F078001FFCF0003C1FE0007007B
:1036F0007E000E003C001C007E0038007E0038007A
:10370000FF007801EF007801EF007003CF80F00731
:103710008780F0070780F00F0780F01E0780F03CDD
:103720000780F03C0780F0780780F0F00780F0E039
:10373000070079E007007BC00F007B800E003F8010
:103740000C003F001C001E0038001F0070003FC12D
:10375000E00079FF8000F07E0000C00000001B291F
:10376000A41F02000080000001C0000003F0000060
:1037700001F80000007C0000001E0000000780002F
:103780000001C000000080000000000000000000F8
:10379000FFC07FE07F803FC01E000F001E000F00B3
:1037A0001E000F001E000F001E000F001E000F0065
:1037B0001E000F001E000F001E000F001E000F0055
:1037C0001E000F001E000F001E000F001E000F0045
:1037D0001E000F001E000F001E000F001E000F0035
:1037E0001E000F001E000F001E001E000F001E0016
:1037F0000F001E0007803C0007C0780003E0F000C7
:1038000001FFE000003F80001B29A41F0200000010
:103810002000000078000000FC000001F800000318
:10382000E000000F8000001E0000003800000020B3
:1038300000000000000000000000FFC07FE07F806B
:103840003FC01E000F001E000F001E000F001E00D4
:103850000F001E000F001E000F001E000F001E00B4
:103860000F001E000F001E000F001E000F001E00A4
:103870000F001E000F001E000F001E000F001E0094
:103880000F001E000F001E000F001E000F001E0084
:103890000F001E001E000F001E000F001E000780FC
:1038A0003C0007C0780003E0F00001FFE000003FAB
:1038B00080001B29A41F020000060000000F00006A
:1038C000001F8000003FC0000079E00000E0F00031
:1038D00001C030000380180001001000000000004B
:1038E00000000000FFC07FE07F803FC01E000F008F
:1038F0001E000F001E000F001E000F001E000F0014
:103900001E000F001E000F001E000F001E000F0003
:103910001E000F001E000F001E000F001E000F00F3
:103920001E000F001E000F001E000F001E000F00E3
:103930001E000F001E000F001E000F001E001E00C4
:103940000F001E000F001E0007803C0007C078001B
:1039500003E0F00001FFE000003F80001B26981FFD
:1039600002000080200000E0380001E0780001E063
:10397000780001C0700000802000000000000000FE
:103980000000FFC07FE07F803FC01E000F001E00D0
:103990000F001E000F001E000F001E000F001E0073
:1039A0000F001E000F001E000F001E000F001E0063
:1039B0000F001E000F001E000F001E000F001E0053
:1039C0000F001E000F001E000F001E000F001E0043
:1039D0000F001E000F001E000F001E001E000F0033
:1039E0001E000F001E0007803C0007C0780003E0A7
:1039F000F00001FFE000003F80001C29A41D000032
:103A000000002000000038000000FC000001F80069
:103A10000003E00000078000001E000000380000E6
:103A2000002000000000000000000000FC003FF04B
:103A3000FE003FF01F000F800F0007000F800E00F8
:103A400007C00E0003C01C0003E03C0001E038008A
:103A500000F0780000F870000078E000007DE000E1
:103A6000003DC000003FC000001F8000001F80001C
:103A7000000F0000000F0000000F0000000F00000A
:103A8000000F0000000F0000000F0000000F0000FA
:103A9000000F0000000F0000000F0000003FC000FA
:103AA00000FFF000151E5A190200FFE0007F8000A1
:103AB0001E00001E00001E00001E00001FFE001F52
:103AC000FF801E0FC01E03E01E01F01E00F81E0046
:103AD000781E00781E00781E00781E00781E007880
:103AE0001E00F01E00F01E01E01F07C01EFF801E1A
:103AF0007C001E00001E00001E00001E00007F80D3
:103B000000FFE0001924901B0100001F8000007FCF
:103B1000E00001C3F0000380F80007007800070010
:103B20007C000E003C000E003C000E003C001E001D
:103B30003C001E003C001E0078001E01F8001E071D
:103B4000F0001E0FC0001E1F00001E3C00001E3CA7
:103B500000001E3C00001E3E00001E3F00001E1F15
:103B6000C0001E0FF0001E03FC001E00FE001E0021
:103B70007F001E001F801E000F801E0007801E2079
:103B800007801E3007801E3007001E380F001E3CC5
:103B90001E003E3FFC00FE07E000142369160200F1
:103BA0001E00003E00001F00000F00000780000301
:103BB000C00001C00000E000006000003000000014
:103BC0000000000000000001F8000FFE001C1E00B5
:103BD000780F00700F00F00F00800F00000F000042
:103BE0000F0000FF0007FF001F8F003E0F00780F3F
:103BF00000F80F00F00F00F00F00F01F00F03F0082
:103C000078EF207F8FF01E078014236916020000D2
:103C10000F00001F00001E00003C00003800007074
:103C20000000700000E00001C00001800000000002
:103C300000000000000001F8000FFE001C1E0078CC
:103C40000F00700F00F00F00800F00000F00000F3A
:103C50000000FF0007FF001F8F003E0F00780F00DD
:103C6000F80F00F00F00F00F00F01F00F03F007899
:103C7000EF207F8FF01E078014226616020000E0FE
:103C80000001F00003F000073800061C000C0E00D5
:103C90001806003003002001800000000000000032
:103CA000000001F8000FFE001C1E00780F00700FCE
:103CB00000F00F00800F00000F00000F0000FF0059
:103CC00007FF001F8F003E0F00780F00F80F00F075
:103CD0000F00F00F00F01F00F03F0078EF207F8F03
:103CE000F01E07801420601602000700800FC180BC
:103CF0001FC1003FF30030FE0060380000000000EC
:103D0000000000000000000001F8000FFE001C1E73
:103D100000780F00700F00F00F00800F00000F0000
:103D2000000F0000FF0007FF001F8F003E0F00780C
:103D30000F00F80F00F00F00F00F00F01F00F03F31
:103D40000078EF207F8FF01E07801420601602009D
:103D50001C07001C07003C0F003C0F001806000069
:103D6000000000000000000000000000000001F85A
:103D7000000FFE001C1E00780F00700F00F00F00F7
:103D8000800F00000F00000F0000FF0007FF001F62
:103D90008F003E0F00780F00F80F00F00F00F00FBB
:103DA00000F01F00F03F0078EF207F8FF01E0780AB
:103DB00014226616020000F00001F8000318000348
:103DC000180006180006180007380003F00001C0AC
:103DD0000000000000000000000001F8000FFE00DD
:103DE0001C1E00780F00700F00F00F00800F000005
:103DF0000F00000F0000FF0007FF001F8F003E0FA5
:103E000000780F00F80F00F00F00F00F00F01F0017
:103E1000F03F0078EF207F8FF01E07801D1658219D
:103E2000020001F81F8007FC7FC01C3EE1E0381F44
:103E3000C0F0700F8070F00F8078F00F0078C00F26
:103E40000078007FFFF803FFFFF00F8F00001E0FC8
:103E500000003C0F0000780F0000F00F0000F00F92
:103E60008000F01F8018F03FC030F8F3E0F07FE3EF
:103E7000FFC07F80FF801E007E001220601502F6CA
:103E8000007F0001FFC00707C00E01801C008038C2
:103E90000000780000700000F00000F00000F0006A
:103EA00000F00000F00000F00000F00000F800005A
:103EB0007801007C03803E07001FFE001FF800070A
:103EC000F00000C00000800000E00000F00001F8F9
:103ED0000000780000780000F00003C0000E000031
:103EE0001223691602000E00001F00000F80000759
:103EF000800003C00001C00000E00000700000303E
:103F00000000180000000000000000000000F800A1
:103F100007FE000E0F001C07803807803803C070B2
:103F200003C07003C0FFFFC0FFFF80F00000F0007F
:103F300000F00000F00000F80000780000780000B9
:103F40007C00C03E01801F07000FFE0003F8001236
:103F50002369160200000700000F80000F00001EFA
:103F600000003C0000380000700000600000C0004D
:103F700000800000000000000000000000F80007C2
:103F8000FE000E0F001C07803807803803C0700346
:103F9000C07003C0FFFFC0FFFF80F00000F0000012
:103FA000F00000F00000F800007800007800007CCD
:103FB00000C03E01801F07000FFE0003F800122220
:103FC0006616020000F00000F00001F800039C00FB
:103FD000070E000E06000C03001801801000800080
:103FE000000000000000000000F80007FE000E0FB7
:103FF000001C07803807803803C07003C07003C0FE
:10400000FFFFC0FFFF80F00000F00000F00000F0B4
:104010000000F800007800007800007C00C03E013D
:10402000801F07000FFE0003F80012206016020038
:104030000E03801E07801E07801E07801C070000DD
:10404000000000000000000000000000000000F878
:104050000007FE000E0F001C07803807803803C0E1
:104060007003C07003C0FFFFC0FFFF80F00000F0CE
:104070000000F00000F00000F80000780000780078
:10408000007C00C03E01801F07000FFE0003F80007
:104090000C23460D0000F000F80078003C001C00E6
:1040A0000E000700030001800080000000000000F7
:1040B00001801F803F800F80078007800780078076
:1040C00007800780078007800780078007800780B8
:1040D00007800780078007800FC03FF00C23460D44
:1040E000020000E001F003E003C0078007000E00BB
:1040F0001C001800300000000000000006007E00D8
:10410000FE003E001E001E001E001E001E001E00BF
:104110001E001E001E001E001E001E001E001E00AF
:104120001E001E003F00FFC00F22440DFF00038051
:1041300007C007E00EF01C703838700C6006C00233
:1041400000000000000000C00FC01FC007C003C077
:1041500003C003C003C003C003C003C003C003C047
:1041600003C003C003C003C003C003C003C007E013
:104170001FF80E20400D00006018F03CF03CE038C5
:10418000E0380000000000000000000001801F80F7
:104190003F800F80078007800780078007800780A7
:1041A00007800780078007800780078007800780D7
:1041B000078007800FC03FF014226618020003003A
:1041C000001FC0801FE1E001FFC0007E0000FC0076
:1041D00003FE000F8F000407800003800003C0006F
:1041E00001C001F1E007FFE00E1FE01C07F03803FB
:1041F000F03801F07801F07000F0F000F0F000F01D
:10420000F000F0F000F0F000E0F000E0F801E078FD
:1042100001C07C01C07C03803E07001F0E000FFC24
:104220000003F0001720601A020001E02003F030C4
:1042300007F86007FCC00E3F80080F000000000078
:1042400000000000000000000C07C0FE0FE03E313F
:10425000E01E60F01EC0F01E80F01F00F01F00F096
:104260001E00F01E00F01E00F01E00F01E00F01EEA
:1042700000F01E00F01E00F01E00F01E00F01E00F8
:10428000F01E00F07F83F8FFC7FE142369180200B8
:104290000F00000F000007800003C00001C00000F5
:1042A000E0000070000070000038000018000000FE
:1042B0000000000000000000FC0007FF000E0F805F
:1042C0001C07C03803C03803E07001E07001F0F053
:1042D00000F0F000F0F000F0F000F0F000F0F0007E
:1042E000F0F800E07801E07C01C03C01C03E0380B2
:1042F0001F07000FFE0003F00014236918020000DE
:1043000007800007C0000F80000F00001E00003C67
:104310000000380000700000600000C000000000D5
:1043200000000000000000FC0007FF000E0F801CD2
:1043300007C03803C03803E07001E07001F0F000FE
:10434000F0F000F0F000F0F000F0F000F0F000F01D
:10435000F800E07801E07C01C03C01C03E03801F12
:1043600007000FFE0003F000142266180200007020
:104370000000F80001FC0001DC00038E00070700CC
:104380000E03800C01C01800C000000000000000F7
:10439000000000FC0007FF000E0F801C07C0380360
:1043A000C03803E07001E07001F0F000F0F000F0C0
:1043B000F000F0F000F0F000F0F000F0F800E0782D
:1043C00001E07C01C03C01C03E03801F07000FFEDE
:1043D0000003F00014206018020003C04007E060F2
:1043E0000FF0C00FF9801C7F00101E0000000000BD
:1043F000000000000000000000FC0007FF000E0F9E
:10440000801C07C03803C03803E07001E07001F081
:10441000F000F0F000F0F000F0F000F0F000F0F04C
:1044200000F0F800E07801E07C01C03C01C03E03F0
:10443000801F07000FFE0003F00014206018020028
:104440000601800F03C00F03C00E03800E0380001F
:10445000000000000000000000000000000000FC60
:104460000007FF000E0F801C07C03803C03803E0B0
:104470007001E07001F0F000F0F000F0F000F0F0FA
:1044800000F0F000F0F000F0F800E07801E07C01CE
:10449000C03C01C03E03801F07000FFE0003F00078
:1044A000110F2D14010600E00001E00001E0000101
:1044B000C0000000000000000000007FFF80FFFF40
:1044C0008000000000000000E00001E00001E000CA
:1044D00001C0001418481802FF00003001F87007EE
:1044E000FEE00E0FC01C07C03803E03807E0700F75
:1044F000E0701CF0F018F0F038F0F070F0F0E0F040
:10450000F0C0F0F1C0F0F380E0FF00E07E01C07E7B
:1045100001C03E03803F070077FE00E1F800800005
:104520000018236919010003800007C00003C000C0
:1045300001E00000F00000700000380000180000EA
:104540000C00000400000000000000000000060055
:1045500070FE07F07E07F01E00F01E00F01E00F057
:104560001E00F01E00F01E00F01E00F01E00F01EE7
:1045700000F01E00F01E00F01E00F01E00F01E00F5
:10458000F01E01F01F02F00F0CFF0FF8FC03E070AB
:104590001823691901000001C00003E00007C000F2
:1045A0000780000F00000E00001C000038000030E3
:1045B0000000600000000000000000000006007025
:1045C000FE07F07E07F01E00F01E00F01E00F01E39
:1045D00000F01E00F01E00F01E00F01E00F01E0095
:1045E000F01E00F01E00F01E00F01E00F01E00F095
:1045F0001E01F01F02F00F0CFF0FF8FC03E0701813
:104600002266190100003800007C00007E0000E7EF
:104610000001C3000381800300C00600600C00207D
:10462000000000000000000000060070FE07F07EA1
:1046300007F01E00F01E00F01E00F01E00F01E002D
:10464000F01E00F01E00F01E00F01E00F01E00F034
:104650001E00F01E00F01E00F01E00F01E01F01FF4
:1046600002F00F0CFF0FF8FC03E070182060190136
:10467000000300C00781E00781E00781E00701C077
:104680000000000000000000000000000000000624
:104690000070FE07F07E07F01E00F01E00F01E0006
:1046A000F01E00F01E00F01E00F01E00F01E00F0D4
:1046B0001E00F01E00F01E00F01E00F01E00F01E96
:1046C00000F01E01F01F02F00F0CFF0FF8FC03E0DA
:1046D00070182E8A18FFF50000F00000F80001E0C5
:1046E0000003E00003C0000780000700000E000088
:1046F0000C000018000000000000000000007FE037
:10470000FF1F003E0F001C0F00180780380780387D
:1047100003803003C07003C06001E0E001E0E0000E
:10472000E0C000F1C000F1C0007980007B80003B58
:1047300000003F00003F00001E00001E00000C00B3
:10474000000C00001C000018000038000070000081
:10475000700000E0003FC0007F8000FF00007C0090
:1047600000152F8D1902F50600007E0000FE0000E6
:104770003E00001E00001E00001E00001E00001E65
:1047800000001E00001E00001E00001E00001E0093
:10479000001E0F001C3FC01C63E01CC1E01D81F027
:1047A0001F00F01F00F81E00F81E00781E00781E83
:1047B00000781E00781E00781E00781E00701E0013
:1047C000701E00E01E00E01F81C01FC3801FFF009D
:1047D0001E7C001E00001E00001E00001E00001EA9
:1047E00000001E00001E00001E00001E00003F0012
:1047F00000FFE000182B8118FFF500C03001C070E9
:1048000001E07803C0F001806000000000000000BB
:1048100000000000000000007FE0FF1F003E0F00CE
:104820001C0F001807803807803803803003C070E1
:1048300003C06001E0E001E0E000E0C000F1C00082
:10484000F1C0007980007B80003B00003F00003F0A
:1048500000001E00001E00000C00000C00001C00E8
:1048600000180000380000700000700000E0003FF9
:10487000C0007F8000FF00007C00000011241FBEEC
:10488000CFEFD8E0DEBFCDBF11E0A0E0B1E0E2E4C1
:10489000FEE502C005900D92AA3BB107D9F714E0DE
:1048A000AAEBB1E001C01D92A330B107E1F7FCD63D
:1048B0000C941F2F0C9400000F93FC01842F815047
:1048C000800F94A936A9341718F0891798F402C0FC
:1048D000891770F0841770F00BC0981738F402C075
:1048E000981730F081E0961768F002C081E00AC0A6
:1048F00080E008C0962F9150920F83A925A9261712
:1049000060F7EECF0F910895DB011496ED91FC91C5
:10491000159720E030E061E009950895DB011496D9
:10492000ED91FC91159720E030E063E00995089542
:10493000DB011496ED91FC91159720E030E040E00A
:1049400064E009950895DB011496ED91FC911597AB
:1049500020E030E041E064E009950895DB01149621
:10496000ED91FC91159720E030E062E00995089503
:10497000DB011496ED91FC91159720E030E065E0A5
:1049800009950895DB011496ED91FC91159766E069
:1049900009950895AF92BF92DF92EF92FF920F9325
:1049A0001F93CF93DF931F92CDB7DEB75C018B01CE
:1049B0007A0180E0F701449181110AC04F3F09F468
:1049C0003AC0B801C501D4DF882309F439C02BC02F
:1049D0004F3F09F4F6CF4E3FA9F1403F20F5403E4E
:1049E00028F04F70B801C501B9DF1DC0403D28F067
:1049F0004F70B801C50192DF16C0403CB0F0B8015D
:104A0000C501498395DF4981D42ED29480EFD82205
:104A1000D394D3948D2D90E006D1B801C50193DFD6
:104A20008D2D90E000D180E007C04E3BE0F747FDC0
:104A3000FACF842FF6CF81E0FFEFEF1AFF0ABACF4B
:104A400080E001C081E00F90DF91CF911F910F9125
:104A5000FF90EF90DF90BF90AF900895A5E0B0E099
:104A6000E3E3F5E22EC78EBD0DB407FEFDCF1F9226
:104A70008F9386E191E09F938F938E010F5F1F4F7D
:104A80001F930F9350D7C80164D58EB50F900F9028
:104A90000F900F900F900F902596E4E02EC7A1E0A5
:104AA000B0E0E4E5F5E20DC78C01643009F43BC0E9
:104AB00038F4623061F168F5613009F04DC00BC027
:104AC000663029F090F1673009F046C002C08901D4
:104AD00036C089013FC062E095D061E0C80192D044
:104AE00060E0C8018FD08FB780933B02F894239A7F
:104AF000259A229A2B982D9880913B028FBF41E0F6
:104B000062E0C80187D01CBC80E58CBD25C061E097
:104B100004C0411105C041E062E0C8017BD01CC067
:104B20002D9840E0F9CF60E0F8CF842F97DF14C0D4
:104B3000F80181918F01498391DF498141504111F1
:104B4000F7CF0AC0F8018491498388DF0F5F1F4FB8
:104B5000498141504111F6CF81E02196E4E0CDC674
:104B6000A2E0B0E0E5EBF5E2AEC6860F911D860F40
:104B7000911D42E050E0BC01CE010196CBD6898167
:104B80009A812296E2E0BBC698E0899F600D1124CD
:104B9000862F0895CF93C82F682F669566956695E2
:104BA00080E790E0DDDFFC019081C77021E030E01C
:104BB00001C0220FCA95EAF7922B9083CF910895F6
:104BC000CF93DF93C82FD62F682F6695669566958D
:104BD00088E690E0C5DFFC01C7708FB7F89490813C
:104BE00021E030E00C2E01C0220F0A94EAF7D11127
:104BF00003C02095922301C0922B90838FBFDF9139
:104C0000CF910895860F911DFC0183A18F3F09F07C
:104C1000C1CF0895860F911DFC0183A18F3F11F034
:104C2000642FCECF08952EE93FE004C0F9013197FB
:104C3000F1F701970097D1F70895A0E0B0E0E2E224
:104C4000F6E23AC68C01EB01B42E690180E1481707
:104C500089F1841720F0EAE04E1336C007C0F1E175
:104C60004F1759F185E148132FC009C042E0C80130
:104C70004BDE48E750E0BE01C8018CDE25C0EA806B
:104C8000FB804EE950E0C80185DEF7014481406BAE
:104C9000BE01C8016DDE41E0BE01C8015FDEAE01AC
:104CA000B801C70184D38823A9F040E0BE01C80140
:104CB00035DE0AC046EA50E002C04FEA50E0BE01CD
:104CC000C80168DE81E007C096014B2DBE01C80116
:104CD000E2D301C080E0CDB7DEB7E9E009C6FC0150
:104CE000E60FF11D8491382F20E03196E4912E0FCC
:104CF000311DC9010895FC0184910895FCDF8330C2
:104D000030F4E82FF0E0E55EFE4F8081089583E007
:104D1000089580E0089566E0E2CF68E0E0CF0A966B
:104D2000FC01849108950B96FC0184910895A0E004
:104D3000B0E0ECE9F6E2BFC5EC01F62E0C811D8176
:104D4000C801D9DFD82EC801D9DFA82E21E0D2169C
:104D500019F0CC24CA9402C02FE0C22EC801DFDFB4
:104D6000E82EC801E0DFB82EC801D7DFE0E6EF1576
:104D700040F4009731F09801280F391F91E6E92E91
:104D80000FC0C801C8DFF0E49801FF1538F40097A0
:104D900029F0280F391F81E4E82E02C02F5E3F4F13
:104DA000BF1408F449C0BE1408F446C04A2D50E0B0
:104DB000F90184918F3F19F42F5F3F4F39C0EF10F5
:104DC0002FC0DD2019F0F2E0DF1213C0F901849149
:104DD0008B8B3196E491EC8BF9013396E491E88B5F
:104DE000F9013496E491E98BF9013596E491EA8B67
:104DF0002AC0982F9F7092509A8B82958F70898BC2
:104E0000F9013196E4918E2F8F708C8BE295EF70C3
:104E1000EB8BF9013296E491E295EF70E88B13C0C9
:104E2000F9013296E491EC212E0F311D240F351F2C
:104E3000EB1411F0E394BCCF188A1B8A1C8A198AE0
:104E40001A8A20E030E0C901CDB7DEB7EAE04FC5ED
:104E50004F925F927F928F929F92AF92BF92CF922A
:104E6000DF92EF92FF920F931F93CF93DF931F92E6
:104E7000CDB7DEB72C01162F742E622F58DF6C01D0
:104E8000009709F43CC0F2018481958137DFF82E48
:104E9000F201838804899188910E8289781A172DEE
:104EA000101B282D412F692DC20106DD811101C083
:104EB00023C0CF0CD11CF7E08F0E86948694869485
:104EC000A82CB12C14C0F701049120E0412F632FCE
:104ED000C2013983FCD1FFEFEF1AFF0A3981385F35
:104EE0008E2D8C19881578F3CA0CDB1C1F5F1715E3
:104EF00019F0392D7601F4CFF201808901C080E0EC
:104F00000F90DF91CF911F910F91FF90EF90DF9065
:104F1000CF90BF90AF909F908F907F905F904F9079
:104F20000895AF92BF92DF92EF92FF920F931F937B
:104F3000CF93DF9300D0CDB7DEB78C01E62EF42EF1
:104F4000DC015596ED91FC91569729833A8309959A
:104F5000F80E2981A22E3A81B32ED12C06C04F2DF6
:104F60006E2DC80175DFE80ED80EF50121915F01A5
:104F70002111F5CF8D2D0F900F90DF91CF911F91C3
:104F80000F91FF90EF90DF90BF90AF900895DC01FC
:104F900014968D919C911597009709F43FC05796F0
:104FA0002C915797FC01211108C03596E491589631
:104FB000EC935897FC013C9611C0213041F43F9688
:104FC000E4915896EC935897FC01709607C03D9673
:104FD000E4915896EC935897FC013E96849159962B
:104FE0008C93599758968C915897992787FD90954F
:104FF00059962C915997821B910927FD93955A96A2
:105000002C915A97203441F0829FC001112456E020
:10501000969587955A95E1F75B968C93089529E8C4
:1050200036E2FC01368B258B0895CF93DF93EC019C
:105030008C819D818617970741F07D836C83CE011B
:10504000A6DF89E896E29E8B8D8BDF91CF91089544
:105050001F93CF93DF93EC011D821C821F821E825F
:10506000198681E0888782E28A871F861E8680E013
:1050700090E02FEFFE01E80FF91F23A301968E3079
:105080009105C1F711E018A3CE01C9DF1F8B188E5F
:10509000198E80E48A8F1B8E8DE89AE29AAB89ABD9
:1050A000DF91CF911F910895DB01ED91FC9109955E
:1050B0000895EF92FF921F93CF93DF9300D0CDB767
:1050C000DEB77C01DC01D196ED91FC91D29782E0B4
:1050D00069837A83099520E030E04AE069817A812A
:1050E000C701E2DF182FD701D196ED91FC91D2973D
:1050F00083E00995D701D196ED91FC91D29780E09C
:105100000995812F0F900F90DF91CF911F91FF9004
:10511000EF9008950F931F93CF93DF93EC018B01D2
:10512000E9A9FAA982E00995E9A9FAA981E0099516
:1051300020E030E044E1B801CE01B6DF9E012D5CF5
:105140003F4F47E1B801CE01AFDFE9A9FAA980E0FE
:105150000995DF91CF911F910F910895FF920F93C1
:105160001F93CF93DF93EC018B01E9A9FAA982E0A9
:105170000995E9A9FAA981E0099520E030E045E127
:10518000B801CE0191DFF82E882339F09E012D5C05
:105190003F4F47E1B801CE0187DFE9A9FAA980E0D6
:1051A00009958F2DCDB7DEB7E5E0A6C3EF920F933B
:1051B000FC01448F258F078FE68E9C01245E3F4FB4
:1051C0004BE372DF0F91EF900895A1E0B0E0EAEEBB
:1051D000F8E279C39E012F5F3F4F46E465DF898186
:1051E0002196E2E08CC3A1E0B0E0E8EFF8E26BC307
:1051F0009E012F5F3F4F47E457DF89812196E2E010
:105200007EC320E030E048E44FCFCF93DF93EC0142
:105210006A817B81DADF88836A817B81CE01E3DF6B
:1052200089836A817B81CE01ECDF8B879E012D5CB7
:105230003F4F6A817B8147E1CE0136DFDF91CF911D
:105240000895CF93DF93EC016A817B8132DF88235D
:1052500021F0CE01DADF81E001C080E0DF91CF9163
:105260000895CF92DF92EF92FF920F93CF93DF9347
:1052700000D0CDB7DEB76C017B012A834983E8DE1D
:10528000F601F382E282498145A32A8124A303A384
:10529000C601D7DF0F900F90DF91CF910F91FF9054
:1052A000EF90DF90CF900895FC016281738132CF3F
:1052B000CF93DF93EC01EE85FF85309709F00995D8
:1052C0006A817B81CE014ADFDF91CF910895EF9211
:1052D0000F93362FFC0162817381E02E022F242F61
:1052E000432F64DF0F91EF900895FC0112828081BB
:1052F0008150838314820895FC0120818281820F72
:1053000082839181891760F484818F5F8483838194
:10531000820F891710F0892F8150838381E00895CF
:1053200080E00895DC011696ED91FC911797159693
:105330008C919F01280F311DC9011192E817F907BF
:10534000E1F70895FC0181E09381961708F480E06D
:1053500031E09281491708F430E021E0461708F067
:1053600020E0982F922B93238223892B0895DC0130
:10537000FB01108212968C911297818315968C9165
:1053800015978150828313968C9183830895FB0136
:1053900061812381213019F0233039F403C0462F75
:1053A000485F04C0462F685001C0462FCBCFFC0198
:1053B000CB01BA01268137814581E4CADC0116960A
:1053C000ED91FC91179712968C91481B477081E0E4
:1053D00090E001C0880F4A95EAF7E60FF11D908131
:1053E000222311F0892B02C08095892380830895A0
:1053F000FB014181DC0112962C911297421760F05B
:1054000013962C911397241738F0608115962C91E0
:10541000621710F42481D2CF0895CF92DF92FF92C9
:105420000F931F93CF93DF9300D0CDB7DEB78C01DE
:105430006B01FB01F2808381813039F070F08230A2
:1054400039F0833041F020E001C021E030E007C0B6
:1054500020E03FEF04C02FEFF9CF20E031E0F7FE6E
:1054600007C0B601C80129833A83C2DF3A81298186
:10547000F6018081830F80838181820F8183FF0CFD
:1054800071F70F900F90DF91CF911F910F91FF90C7
:10549000DF90CF9008950F931F93CF93DF938901EF
:1054A000FB01C281D3814233B9F038F44531E9F0D0
:1054B000473111F1443149F513C0463409F14734FD
:1054C00009F14B3311F5B901CE0161DF8823E9F011
:1054D000B801CE01A2DF19C0B901CE0189DF15C024
:1054E000CE0120DFCE0101DF10C0CE0105DF882311
:1054F00071F0CE0117DF09C0B901CE0138DF05C058
:105500008D8101C08981F801808381E001C080E044
:10551000DF91CF911F910F9108950895E0911401AB
:10552000F0911501819393E0EB33F90709F028F42A
:10553000F0931501E093140106C023E732E03093A5
:105540001501209314019091C10090629093C100C5
:105550000895CF93DF93EC01F8948991DFDF8111F7
:10556000FCCF7894DF91CF91089588E090E09093FC
:10557000C5008093C400E2ECF0E080818F738083EB
:1055800080818F7C80838081877F8083808186601B
:105590008083E1ECF0E08081886180838081806C91
:1055A0008083789408959AB190669AB994B5906280
:1055B00094BD95B5986095BD94B5936094BD95B52F
:1055C000946095BDEEE6F0E090819160908387BD98
:1055D00016BC789408951F920F920FB60F92112463
:1055E0000F900FBE0F901F9018951F920F920FB63D
:1055F0000F9211248F939F93EF93FF93E0911201E9
:10560000F09113018091140190911501E817F907A9
:10561000A1F081918093C60083E0EB33F80709F095
:1056200028F4F0931301E09312010CC083E792E099
:10563000909313018093120105C08091C1008F7D6A
:105640008093C100FF91EF919F918F910F900FBEBA
:105650000F901F9018951F920F920FB60F92112462
:105660008F939F93EF93FF938091C600E0910E017B
:10567000F0910F01819384E0E330F80709F028F4FA
:10568000F0930F01E0930E0106C08BE393E090933B
:105690000F0180930E01FF91EF919F918F910F90D9
:1056A0000FBE0F901F90189560DF8FEF7CDFFFCF4C
:1056B000CF93DF93EC018CE392E0F6DD6AEB70E0D0
:1056C0008CE392E0B2DC9E0140E460E08CE392E087
:1056D00028DC8CE392E0ECDD8111F0CFDF91CF91FB
:1056E0000895A5E6B0E0E6E7FBE2EBC0E09110012B
:1056F000F091110180910E0190910F018E179F077B
:1057000009F4A0C0219184E0E330F80709F028F4FF
:10571000F0931101E093100106C08BE393E09093A6
:10572000110180931001213389F030F42A3059F0AF
:105730002D3009F087C007C0233359F120F12437F9
:1057400009F080C02FC085E591E07BC08EE191E03B
:1057500000DF63E082E018DA082F62E082E014DA0A
:10576000282F61E082E0A6962FAFA6970DDAA696C5
:105770002FADA697482F60E071E08CE392E071DDD9
:1057800084E391E05EC08DE391E0E3DE88E491E0A4
:1057900005C088E591E0DDDE86E691E089DF8EE4F4
:1057A00091E04FC084B11F928F938FE691E09F9359
:1057B0008F938E010F5F1F4F1F930F93B4D0C801BB
:1057C000C8DE87B11F928F938BE791E09F938F93F1
:1057D0001F930F93A8D0C801BCDE85B11F928F9391
:1057E00087E891E09F938F931F930F939CD0C801FC
:1057F000B0DE88B11F928F9384E991E09F938F93DD
:105800001F930F9390D0C801A4DE8CB51F928F9385
:1058100081EA91E09F938F931F930F9384D0C801E7
:1058200098DE8DB51F928F938DEA91E09F938F93B1
:105830001F930F9378D00FB6F894DEBF0FBECDBF85
:10584000C80187DECB59DF4FE4E057C01F920F92AB
:105850000FB60F9211242F933F934F935F936F9343
:105860007F938F939F93AF93BF93EF93FF93809119
:105870003A02982F9F5F90933A02883219F431DFF1
:1058800010923A02FF91EF91BF91AF919F918F914A
:105890007F916F915F914F913F912F910F900FBE2C
:1058A0000F901F9018952F923F924F925F926F9298
:1058B0007F928F929F92AF92BF92CF92DF92EF92A0
:1058C000FF920F931F93CF93DF93CDB7DEB7CA1B21
:1058D000DB0B0FB6F894DEBF0FBECDBF09942A884C
:1058E000398848885F846E847D848C849B84AA84F4
:1058F000B984C884DF80EE80FD800C811B81AA8181
:10590000B981CE0FD11D0FB6F894DEBF0FBECDBF4B
:10591000ED010895FB01DC0102C005900D9241509C
:105920005040D8F70895AEE0B0E0E8E9FCE2C9CF16
:105930000D891E8986E08C831A8309838FEF9FE788
:105940009E838D83CE014996AC016F89788DCE01FF
:10595000019608D0EF81F885E00FF11F10822E9696
:10596000E4E0CBCFACE0B0E0E7EBFCE29CCF7C0125
:105970006B018A01FC0117821682838181FFB9C104
:1059800088248394912C8C0E9D1EF7019381F6013F
:1059900093FD859193FF81916F01882309F4A5C13F
:1059A000853239F493FD859193FF81916F018532A2
:1059B00021F4B70190E0B9D1E8CF512C312C20E08F
:1059C0002032A8F48B3261F028F4803251F0833217
:1059D00071F40BC08D3239F0803349F4216028C056
:1059E0002260246025C0286023C0206121C027FDDB
:1059F00027C0382F30533A3078F426FF06C0FAE03B
:105A00005F9E300D1124532E13C08AE0389E300D56
:105A10001124332E20620CC08E3221F426FD65C184
:105A2000206406C08C3611F4206802C0883641F428
:105A3000F60193FD859193FF81916F018111C0CF94
:105A4000982F9554933018F09052933028F40C5FAF
:105A50001F4FFFE3F9830DC0833631F0833771F0B8
:105A6000833509F05AC022C0F801808189830E5F16
:105A70001F4F44244394512C540114C03801F2E0C8
:105A80006F0E711CF801A080B18026FF03C0652D48
:105A900070E002C06FEF7FEFC5012C873BD12C0176
:105AA00083012C856FE7262E222217C03801F2E0F1
:105AB0006F0E711CF801A080B18026FF03C0652D18
:105AC00070E002C06FEF7FEFC5012C8718D12C0169
:105AD0002C8550E8252E222A830123FC1AC005C0FC
