:100000000C9497000C94B4000C94B4000C94B400BD
:100010000C94B4000C94B4000C94B4000C94B40090
:100020000C94B4000C94B4000C94B4000C94B40080
:100030000C94B4000C94B4000C94B4000C94B40070
:100040000C94B4000C94B4000C94C3020C9467029A
:100050000C9455020C94B4000C94B4000C94B400AD
:100060000C94B4000C94B400FC028C038C03FC02CE
:100070008C038C038C038C038C038C038C038C0308
:100080008C038C038C038C038C038C038C038C03F8
:100090008C038C03F7028C038C038C038C038C037E
:1000A0008C038C038C038C038C03560330033003C6
:1000B00056038C038C0303030C0315031E03270351
:1000C0008C038C038C038C038C038C03300356034A
:1000D00056038C038C038C038C038C038C038C03DE
:1000E0008C038C0383038C038C038C037A038C03B3
:1000F0008C038C038C038C038C038C038C038C0388
:100100008C038C038C038C038C038C038C038C0377
:100110008C0330038C038C038C038C038C038C03C3
:100120008C038C0383038C038C038C037A031124CC
:100130001FBECFEFD8E0DEBFCDBF11E0A0E0B1E041
:10014000E2E2FEE002C005900D92A635B107D9F7B4
:1001500015E0A6E5B1E001C01D92AE33B107E1F7AD
:100160000E94C2030C940F070C940000CF93DF93FE
:10017000CDB7DEB78AE290E02AE230E0F9012081D3
:100180002066FC01208384E490E024E430E0F9015F
:1001900020812062FC01208385E490E025E430E0AA
:1001A000F90120812860FC01208384E490E024E4AC
:1001B00030E0F90120812360FC01208385E490E098
:1001C00025E430E0F90120812460FC0120838EE6E3
:1001D00090E02EE630E0F9012081FC01208387E4E5
:1001E00090E02CE9FC01208388E490E02EE3FC0100
:1001F000208386E490E0FC0110827894DF91CF9117
:100200000895CF93DF93CDB7DEB784EC90E028E07C
:1002100030E0FC013183208382EC90E022EC30E07E
:10022000F90120812F73FC01208382EC90E022EC05
:1002300030E0F90120812F7CFC01208382EC90E0EA
:1002400022EC30E0F9012081277FFC01208382EC41
:1002500090E022EC30E0F90120812660FC0120834F
:1002600081EC90E021EC30E0F90120812861FC0173
:10027000208381EC90E021EC30E0F90120812068BE
:10028000FC0120837894DF91CF910895CF93DF9381
:100290001F92CDB7DEB7898380910201909103014F
:1002A0002981FC0120830196909303018093020130
:1002B00081EC90E021EC30E0F90120812062FC012A
:1002C000208389810F90DF91CF910895CF93DF93A1
:1002D00000D0CDB7DEB79A838983000089819A81E7
:1002E000FC018081282F89819A8101969A838983D4
:1002F000822F0E944601882389F70F900F90DF918B
:10030000CF910895CF93DF93CDB7DEB7C456D1090F
:100310000FB6F894DEBF0FBECDBF20910001309123
:10032000010180910A0190910B01A901481B590B11
:1003300080910801909109019695879596958795EA
:100340009C01ABE7B4E10E94CB03FC01F695E79575
:1003500080910A0190910B019695879596958795C6
:100360009C01ABE7B4E10E94CB03969587959F0172
:10037000281B390BCA01B9010E94E2039B0180913D
:10038000000190910101432F4F932F93292F2F9319
:100390008F938CE091E0892F8F938CE091E08F9385
:1003A000CE010196892F8F93CE0101968F930E94E3
:1003B0003A048DB79EB708960FB6F894DEBF0FBE0D
:1003C000CDBFCE0101960E946601CC59DF4F0FB61A
:1003D000F894DEBF0FBECDBFDF91CF910895CF93CC
:1003E000DF93CDB7DEB7C456D1090FB6F894DEBFA0
:1003F0000FBECDBF409106015091070180910801C9
:100400009091090196958795969587959C01ABE704
:10041000B4E10E94CB03FC01F695E79580910A01B7
:1004200090910B0196958795969587959C01ABE7E2
:10043000B4E10E94CB03969587959F01281B390B49
:10044000CA01B9010E94E2039B01809106019091CB
:100450000701432F4F932F93292F2F938F938CE2D4
:1004600091E0892F8F938CE291E08F93CE010196DA
:10047000892F8F93CE0101968F930E943A048DB7F6
:100480009EB708960FB6F894DEBF0FBECDBFCE0163
:1004900001960E946601CC59DF4F0FB6F894DEBF7B
:1004A0000FBECDBFDF91CF9108951F920F920090A4
:1004B0005F000F921124CF93DF93CDB7DEB7DF91AA
:1004C000CF910F9000925F000F901F9018951F9290
:1004D0000F9200905F000F9211242F933F934F9340
:1004E0008F939F93EF93FF93CF93DF93CDB7DEB7B7
:1004F0002091040130910501809102019091030146
:100500002817390778F426EC30E0809104019091A7
:100510000501FC014081F90140830196909305019A
:100520008093040120910401309105018091020122
:100530009091030128173907B9F486E591E090936B
:100540000301809302018091020190910301909335
:1005500005018093040181EC90E021EC30E0F90189
:1005600020812F7DFC012083DF91CF91FF91EF91BE
:100570009F918F914F913F912F910F9000925F002B
:100580000F901F9018951F920F9200905F000F928E
:1005900011240F931F932F933F934F935F936F9368
:1005A0007F938F939F93AF93BF93EF93FF93CF93DB
:1005B000DF931F92CDB7DEB786EC90E0FC0180811F
:1005C00089838981882F90E0AA2797FDA095BA2F6B
:1005D0004AE050E022E630E0841B950B28173907EB
:1005E00008F49AC08C5C9F4FFC010C9412040E948A
:1005F00082010E94EF0193C08DE00E9446018AE0D3
:100600000E9446018CC081E090E0909307018093A6
:1006100006010E94EF0183C08AE090E090930701F9
:10062000809306010E94EF017AC084E690E09093E7
:100630000701809306010E94EF0171C084EF91E0F1
:1006400090930701809306010E94EF0168C088EE35
:1006500093E090930701809306010E94EF015FC031
:1006600020910001309101018091060190910701D4
:10067000A901481B590BCA01909301018093000105
:10068000209100013091010180910A0190910B01AC
:100690002817390740F480910A0190910B0190933B
:1006A0000101809300010E94820139C02091000164
:1006B000309101018091060190910701820F931FF3
:1006C000909301018093000120910001309101017C
:1006D00080910801909109018217930740F480915D
:1006E00008019091090190930101809300010E94FB
:1006F000820115C086EB93E0909301018093000185
:100700000E9482010CC082E098E0909301018093E6
:1007100000010E94820103C089810E94460108E411
:1007200010E080910001909101019C0140E050E0B7
:100730008CE990E0DC010E94D703DC01CB0124ECC2
:1007400039E040E050E0BC01CD010E94F603DA013F
:10075000C901F80180830F90DF91CF91FF91EF9154
:10076000BF91AF919F918F917F916F915F914F91C9
:100770003F912F911F910F910F9000925F000F906A
:100780001F901895CF93DF93CDB7DEB70E9401017C
:100790000E94B600FFCFA29FB001B39FC001A39FEC
:1007A00001D0B29F700D811D1124911D08950E94EA
:1007B000CB03A59F900DB49F900DA49F800D911D1C
:1007C00011240895AA1BBB1B51E107C0AA1FBB1F20
:1007D000A617B70710F0A61BB70B881F991F5A95CD
:1007E000A9F780959095BC01CD010895052E97FB42
:1007F00016F4009407D057FD0DD00E94180407FC92
:1008000009D07EF490958095709561957F4F8F4FBC
:100810009F4F089550954095309521953F4F4F4FEC
:100820005F4F0895EE0FFF1F0590F491E02D09949E
:10083000A1E21A2EAA1BBB1BFD010DC0AA1FBB1FE4
:10084000EE1FFF1FA217B307E407F50720F0A21B56
:10085000B30BE40BF50B661F771F881F991F1A94C3
:1008600069F760957095809590959B01AC01BD01ED
:10087000CF010895AEE0B0E0E0E4F4E00C94E606C9
:100880000D891E8986E08C831A8309838FEF9FE789
:100890009E838D83CE014996AC016F89788DCE0100
:1008A00001960E945C04EF81F885E00FF11F108231
:1008B0002E96E4E00C940207ACE0B0E0E2E6F4E04F
:1008C0000C94D8067C016B018A01FC011782168208
:1008D000838181FFC6C188248394912C8C0E9D1E38
:1008E000F7019381F60193FD859193FF81916F014B
:1008F000882309F4B2C1853239F493FD859193FFC1
:1009000081916F01853229F4B70190E00E944E0673
:10091000E7CF512C312C20E02032A8F48B3261F04B
:1009200028F4803251F0833271F40BC08D3239F0EB
:10093000803349F4216028C02260246025C02860EB
:1009400023C0206121C027FD27C0382F30533A3003
:1009500078F426FF06C0FAE05F9E300D1124532E76
:1009600013C08AE0389E300D1124332E20620CC053
:100970008E3221F426FD71C1206406C08C3611F43C
:10098000206802C0883641F4F60193FD859193FFFB
:1009900081916F018111C0CF982F9554933018F039
:1009A0009052933028F40C5F1F4FFFE3F9830DC082
:1009B000833631F0833771F0833509F05EC023C090
:1009C000F801808189830E5F1F4F44244394512C8A
:1009D000540115C03801F2E06F0E711CF801A080BF
:1009E000B18026FF03C0652D70E002C06FEF7FEF7E
:1009F000C5012C870E9443062C0183012C856FE7DB
:100A0000262E222218C03801F2E06F0E711CF80168
:100A1000A080B18026FF03C0652D70E002C06FEF9B
:100A20007FEFC5012C870E9438062C012C8550E8E9
:100A3000252E222A830123FC1CC006C0B70180E2B8
:100A400090E00E944E063A94832D90E04816590695
:100A5000A8F30FC0F50127FC859127FE81915F0166
:100A6000B70190E00E944E0631103A94F1E04F1A1F
:100A700051084114510471F7EDC0843611F08936E4
:100A800041F5F80127FF07C0608171818281938160
:100A90000C5F1F4F08C060817181882777FD8095AA
:100AA000982F0E5F1F4F4FE6B42EB22297FF09C05A
:100AB00090958095709561957F4F8F4F9F4FF0E88F
:100AC000BF2A2AE030E0A4010E947A06A82EA818C6
:100AD00043C0853731F43FEEB32EB2222AE030E036
:100AE00024C099EFB92EB2228F36B9F020F48835A0
:100AF00009F0B3C00DC0803721F0883709F0ADC0D0
:100B000002C020E1B22AB4FE0BC084E0B82A08C0BB
:100B100024FF09C0E6E0BE2A06C028E030E005C098
:100B200020E130E002C020E132E0F801B7FE07C06A
:100B300060817181828193810C5F1F4F06C060814B
:100B4000718180E090E00E5F1F4FA4010E947A0641
:100B5000A82EA818FFE7BF22B6FE0BC02B2D2E7FB4
:100B6000A51450F4B4FE0AC0B2FC08C02B2D2E7E92
:100B700005C07A2C2B2D03C07A2C01C0752C24FFC4
:100B80000DC0FE01EA0DF11D8081803311F4297E34
:100B900009C022FF06C07394739404C0822F867824
:100BA00009F0739423FD14C020FF0FC05A2C731456
:100BB00060F4530C5718732C08C0B70180E290E022
:100BC0002C870E944E0673942C857314B0F304C0D6
:100BD000731410F4371801C0312C24FF12C0B70170
:100BE00080E390E02C870E944E062C8522FF1EC0D9
:100BF00021FF03C088E590E002C088E790E0B701DC
:100C00000CC0822F867891F021FD02C080E201C0E5
:100C10008BE227FD8DE2B70190E00E944E0606C0F0
:100C2000B70180E390E00E944E065A94A514C0F3E9
:100C3000AA94F401EA0DF11DB701808190E00E94B1
:100C40004E06A110F5CF06C0B70180E290E00E94E9
:100C50004E063A943110F8CF43CEF7012681378102
:100C600002C02FEF3FEFC9012C96E2E10C94F4068D
:100C7000FC010590615070400110D8F78095909567
:100C80008E0F9F1F0895FC0161507040019001106C
:100C9000D8F7809590958E0F9F1F08950F931F93FF
:100CA000CF93DF938C01EB018B8181FD03C00FEFAC
:100CB0001FEF1AC082FF0DC02E813F818C819D8164
:100CC0002817390764F4E881F9810193F983E883EF
:100CD00006C0E885F985802F0995892B41F78E811B
:100CE0009F8101969F838E83C801DF91CF911F91D1
:100CF0000F910895FA01AA27283051F1203181F18E
:100D0000E8946F936E7F6E5F7F4F8F4F9F4FAF4F13
:100D1000B1E03ED0B4E03CD0670F781F891F9A1F26
:100D2000A11D680F791F8A1F911DA11D6A0F711DDA
:100D3000811D911DA11D20D009F468943F912AE0E6
:100D4000269F11243019305D3193DEF6CF010895CE
:100D5000462F4770405D4193B3E00FD0C9F7F6CFFF
:100D6000462F4F70405D4A3318F0495D31FD4052C7
:100D7000419302D0A9F7EACFB4E0A695979587955D
:100D800077956795BA95C9F700976105710508953C
:100D90009B01AC010A2E06945795479537952795E8
:100DA000BA95C9F7620F731F841F951FA01D089580
:100DB0002F923F924F925F926F927F928F929F926B
:100DC000AF92BF92CF92DF92EF92FF920F931F9359
:100DD000CF93DF93CDB7DEB7CA1BDB0B0FB6F8940A
:100DE000DEBF0FBECDBF09942A88398848885F844A
:100DF0006E847D848C849B84AA84B984C884DF80BB
:100E0000EE80FD800C811B81AA81B981CE0FD11D9E
:100E10000FB6F894DEBF0FBECDBFED010895F89474
:020E2000FFCF02
:100E2200E803560156010A00D007E80344757479B5
:100E3200203D202564206F722025642525206F66C1
:100E4200207468726F74746C650D0A005374657057
:100E520053697A65203D202564206F722025642520
:100E620025206F662066756C6C207468726F7474CE
:060E72006C650D0A000092
:00000001FF
