:100000000C9434000C9449000C9449000C94490061
:100010000C9449000C9449000C9449000C9449003C
:100020000C9449000C9449000C9449000C9449002C
:100030000C9449000C9449000C9449000C9449001C
:100040000C9449000C9449000C9449000C9449000C
:100050000C9449000C9449000C9449000C944900FC
:100060000C9449000C94490011241FBECFEFD8E036
:10007000DEBFCDBF11E0A0E0B1E0ECE9FEE002C0E0
:1000800005900D92A830B107D9F70E944B000C944F
:100090004C070C9400000F931F93CF93DF93CDB7C1
:1000A000DEB7AA970FB6F894DEBF0FBECDBF84E2CD
:1000B00090E024E230E0F90120812062FC012083FD
:1000C00085E290E025E230E0F90120812062FC0128
:1000D000208380E090E0A0E8BFE389839A83AB832C
:1000E000BC8380E090E0A0E2B1E48B879C87AD8781
:1000F000BE8780E090E0A0E8BFE38D839E83AF835E
:10010000B8871A8619860FC185E290E025E230E0B3
:10011000F90120812062FC01208389819A81AB81D1
:10012000BC818F87988BA98BBA8B20E030E04AEF97
:1001300054E46F85788989899A890E94BA03DC0121
:10014000CB018B8B9C8BAD8BBE8B20E030E040E8ED
:100150005FE36B897C898D899E890E94FD048823D9
:100160002CF481E090E0988F8F8B42C020E03FEF2D
:100170004FE757E46B897C898D899E890E949F0493
:10018000181664F520E030E040E251E46F8578898C
:1001900089899A890E94BA03DC01CB01BC01CD0197
:1001A0000E94D501DC01CB01988F8F8B12C088ECA7
:1001B00090E09A8F898F898D9A8D8C01C801019763
:1001C000F1F78C011A8F098F8F89988D0197988F7D
:1001D0008F8B8F89988D009751F717C06B897C8919
:1001E0008D899E890E94D501DC01CB01988F8F8B70
:1001F0008F89988D9C8F8B8F8B8D9C8D8C01F801B6
:100200003197F1F78F011C8F0B8F85E290E025E28B
:1002100030E0F90120812F7DFC01208329813A8182
:100220004B815C816B857C858D859E850E948A03D0
:10023000DC01CB018D8F9E8FAF8FB8A320E030E023
:100240004AEF54E46D8D7E8D8F8D98A10E94BA0384
:10025000DC01CB0189A39AA3ABA3BCA320E030E0CF
:1002600040E85FE369A17AA18BA19CA10E94FD04F3
:1002700088232CF481E090E09EA38DA342C020E06F
:100280003FEF4FE757E469A17AA18BA19CA10E949F
:100290009F04181664F520E030E040E251E46D8DD3
:1002A0007E8D8F8D98A10E94BA03DC01CB01BC0129
:1002B000CD010E94D501DC01CB019EA38DA312C00C
:1002C00088EC90E098A78FA38FA198A58C01C80116
:1002D0000197F1F78C0118A70FA38DA19EA101979B
:1002E0009EA38DA38DA19EA1009751F717C069A170
:1002F0007AA18BA19CA10E94D501DC01CB019EA318
:100300008DA38DA19EA19AA789A789A59AA58C01E5
:10031000F8013197F1F78F011AA709A789859A8506
:1003200001969A87898789859A85823091050CF490
:10033000EBCE20E030E040E85FE36B857C858D8587
:100340009E850E948A03DC01CB0129813A814B8181
:100350005C81BC01CD010E94FD04882364F020E093
:1003600030E040E85FE369817A818B819C810E9463
:10037000FD0488234CF48D819E81AF81B885B058EF
:100380008D839E83AF83B8872D813E814F815885B1
:1003900069817A818B819C810E945E03DC01CB01A3
:1003A00089839A83AB83BC83ACCECF92DF92EF92EA
:1003B000FF920F931F936B017C0120E030E040E03F
:1003C0005FE40E94CE0487FD0EC020E030E040E0F4
:1003D0005FE4C701B6010E948A030E942C058B01CD
:1003E0009C01305806C0C701B6010E942C058B0144
:1003F0009C01B801C9011F910F91FF90EF90DF9010
:10040000CF900895A4E0B0E0E8E0F2E00C94170784
:100410007C016A01FC018081823008F44AC1FB0141
:100420009081923008F442C1843079F4943009F01C
:1004300040C1F7019181FB018181981709F439C10D
:10044000A0E0EA2EA1E0FA2E34C1943009F42EC1C6
:10045000923091F4823009F02CC188E0F701DA0182
:1004600001900D928A95E1F7FB018181F70191815D
:100470008923FA0181831CC1823009F417C1F70175
:1004800082819381FB01A281B381F70104811581EF
:1004900026813781FB0184809580A680B780FC018E
:1004A000EA1BFB0BAF01F7FF04C0442755274E1B87
:1004B0005F0B403251050CF074C01E161F06B4F5D8
:1004C00024013501042E04C0769467945794479410
:1004D0000A94D2F749825A826B827C82412C512C39
:1004E0003201439404C0440C551C661C771C4A9589
:1004F000D2F741E0441A5108610871084820592098
:100500006A207B20812C912C540183944528462815
:10051000472819F4812C912C540149805A806B8012
:100520007C8084289528A628B72846C0EF2B09F49C
:1005300043C0840F951F28013901042E04C076940E
:100540006794579447940A94D2F749825A826B82EF
:100550007C82412C512C3201439404C0440C551C24
:10056000661C771C4A95D2F741E0441A510861088D
:100570007108402251226222732201E010E020E043
:1005800030E045284628472819F400E010E098019B
:1005900049805A806B807C800429152926293729B7
:1005A0000BC0A817B90724F4812C912C540104C066
:1005B000CD0100E010E09801F7014181FB0151817C
:1005C000451709F446C0442349F024013501401A77
:1005D000510A620A730A9301820104C008191909B9
:1005E0002A093B0937FD05C0F601118293838283F6
:1005F0000CC041E0F60141839383828330952095BE
:10060000109501951F4F2F4F3F4F0483158326836D
:1006100037830EC0880F991FAA1FBB1FF601848362
:100620009583A683B7838281938101979383828385
:10063000F60184819581A681B781AC01BD0141504D
:100640005109610971094F3F5F4F6F4F7F4310F3AD
:100650000CC0F601418393838283080D191D2A1D66
:100660003B1D048315832683378383E0F601808353
:10067000448155816681778177FF1AC0DB01CA0109
:1006800081709927AA27BB27769567955795479537
:10069000842B952BA62BB72B84839583A683B783B6
:1006A0008281938101969383828302C07B0101C082
:1006B0007601C7012496E0E10C943307A0E2B0E094
:1006C000E4E6F3E00C9425076D8F7E8F8F8F98A35F
:1006D000298F3A8F4B8F5C8FBE016F5E7F4FCE01AB
:1006E0004D960E944506BE01675F7F4FCE01499639
:1006F0000E944506AE014F5F5F4FBE01675F7F4FAF
:10070000CE0141960E9402020E947B05A096E2E083
:100710000C944107A0E2B0E0E0E9F3E00C94250777
:100720006D8F7E8F8F8F98A3298F3A8F4B8F5C8F21
:10073000BE016F5E7F4FCE014D960E944506BE0101
:10074000675F7F4FCE0149960E9445068A8591E0FA
:1007500089278A87AE014F5F5F4FBE01675F7F4F7A
:10076000CE0141960E9402020E947B05A096E2E023
:100770000C944107A0E2B0E0E0ECF3E00C94170722
:100780006D8F7E8F8F8F98A3298F3A8F4B8F5C8FC1
:10079000BE016F5E7F4FCE014D960E944506BE01A1
:1007A000675F7F4FCE0149960E9445069989923036
:1007B00008F412C08985823008F41AC0943021F4FC
:1007C000823009F4B4C008C0843021F4923009F4B6
:1007D000AEC00EC0923051F481E02A899A85291367
:1007E00001C080E08A8BCE014196A3C0823051F4D3
:1007F00081E02A899A85291301C080E08A87CE0189
:10080000099697C08D889E88AF88B88C0D851E8507
:100810002F853889E0E2F0E080E090E0DC01C12C37
:10082000D12C760140E050E0BA0180FE18C0400FA4
:10083000511F621F731F8C0D9D1DAE1DBF1D412CCE
:10084000512C32014394401751076207730718F087
:10085000412C512C3201840D951DA61DB71DCC0CC9
:10086000DD1CEE1CFF1C37FF02C06894C0F8000FAF
:10087000111F221F331FB694A79497948794319722
:10088000A1F62B893C89EB85FC852E0F3F1F2E5F3F
:100890003F4F3C832B8321E0EA893A85E31301C073
:1008A00020E02A83EB81FC810CC080FF05C0769597
:1008B0006795579547957068B695A79597958795CD
:1008C0003196B7FDF2CF9F010CC0880F991FAA1F68
:1008D000BB1F77FD8160440F551F661F771F215096
:1008E00031090097A105E0E4BE0778F32B833C8330
:1008F0008C019D010F771127222733270034110522
:100900002105310559F487FD09C0452B462B472B9E
:1009100029F0805C9F4FAF4FBF4F80788D839E83BF
:10092000AF83B88783E08983CE01019602C080E05F
:1009300091E00E947B05A096E0E10C943307A8E1CA
:10094000B0E0E5EAF4E00C9425076D8B7E8B8F8B8D
:10095000988F298B3A8B4B8B5C8BBE01675F7F4FE7
:10096000CE0145960E944506BE016F5F7F4FCE01C6
:1009700041960E9445068985823058F089818230EF
:1009800040F0BE016F5F7F4FCE0109960E94B40612
:1009900001C08FEF6896E2E00C944107A8E1B0E057
:1009A000E4EDF4E00C9425076D8B7E8B8F8B988F94
:1009B000298B3A8B4B8B5C8BBE01675F7F4FCE01DF
:1009C00045960E944506BE016F5F7F4FCE0141965E
:1009D0000E9445068985823058F08981823040F036
:1009E000BE016F5F7F4FCE0109960E94B40601C021
:1009F0008FEF6896E2E00C944107A8E1B0E0E3E0F5
:100A0000F5E00C9425076D8B7E8B8F8B988F298B4F
:100A10003A8B4B8B5C8BBE01675F7F4FCE01459657
:100A20000E944506BE016F5F7F4FCE0141960E9436
:100A300045068985823058F08981823040F0BE01B8
:100A40006F5F7F4FCE0109960E94B40601C081E01E
:100A50006896E2E00C944107ACE0B0E0E2E3F5E038
:100A60000C94230769877A878B879C87BE016F5F09
:100A70007F4FCE0109960E9445068981823091F10F
:100A8000823080F1843041F48A81882331F100E0A2
:100A900010E020E030E829C02B813C8137FD22C0E6
:100AA0002F3131058CF78EE190E0821B930B0D8185
:100AB0001E812F81388504C0369527951795079597
:100AC0008A95D2F78A81882381F0309520951095F8
:100AD00001951F4F2F4F3F4F08C00FEF1FEF2FEF14
:100AE0003FE703C000E010E09801B801C9012C966F
:100AF000E4E00C943F070F931F93CF93DF93DC0147
:100B000014964D915D916D917C9117971196EC9192
:100B100011978C91823020F460618FEF90E0A6C035
:100B2000843009F49EC0823009F495C04115510506
:100B30006105710509F492C012962D913C911397AD
:100B400022388FEF38070CF058C0C2E8DFEFC21B25
:100B5000D30BCA31D1056CF58A019B010C2E04C060
:100B600036952795179507950A94D2F781E090E07E
:100B7000A0E0B0E00C2E04C0880F991FAA1FBB1F75
:100B80000A94D2F70197A109B10984239523A623DA
:100B9000B72341E050E060E070E0892B8A2B8B2B7B
:100BA00019F440E050E0BA01402B512B622B732B1B
:100BB00003C040E050E0BA01DB01CA018F779927FA
:100BC000AA27BB2780349105A105B10539F447FF59
:100BD00009C0405C5F4F6F4F7F4F04C0415C5F4F67
:100BE0006F4F7F4F81E090E041155105610520E492
:100BF000720748F580E090E026C0203831058CF57A
:100C0000DB01CA018F779927AA27BB27803491057A
:100C1000A105B10539F447FF09C0405C5F4F6F4F34
:100C20007F4F04C0415C5F4F6F4F7F4F77FD04C023
:100C3000C90181589F4F07C076956795579547958D
:100C4000C90180589F4F97E07695679557954795CE
:100C50009A95D1F70BC080E090E005C080E090E06D
:100C600005C08FEF90E040E050E0BA01982F9695D4
:100C7000E0FB97F9362F80FB37F9642F752F832F10
:100C8000DF91CF911F910F910895CF92DF92EF9254
:100C9000DC01FB01CC901196DC90119712968C919F
:100CA00012973FE7E32EE8226E2DA60170E0982F01
:100CB000991F9927991F13962C91822F880F892BA2
:100CC00090E027FB222720F92183009729F5411581
:100CD00051056105710511F482E027C082E89FEF9C
:100CE0009383828327E0440F551F661F771F2A9541
:100CF000D1F783E0808309C0440F551F661F771F1B
:100D00008281938101979383828341155105610507
:100D100080E4780788F320C08F3F910579F441156E
:100D200051056105710519F484E0808319C0E4FE62
:100D300003C081E0808310C010820EC08F579109DC
:100D40009383828383E0808387E0440F551F661F6F
:100D5000771F8A95D1F770644483558366837783C0
:100D6000EF90DF90CF900895CF93FC01DB0190814D
:100D7000923008F452C08C91823008F44EC0943006
:100D800071F4843039F411962C9130E08181281B64
:100D9000310948C08181882309F43FC03BC08430B9
:100DA00029F411968C91811138C034C0923019F415
:100DB0008230B9F735C0823069F3C18111968C91C8
:100DC0001197C8131DC02281338112968D919C9179
:100DD0001397821793070CF413C0281739070CF4E4
:100DE00017C0448155816681778114968D919D91BC
:100DF0000D90BC91A02D84179507A607B70718F48E
:100E0000C11108C00AC0481759076A077B0740F498
:100E1000C11103C02FEF3FEF05C021E030E002C059
:100E200020E030E0C901CF9108952F923F924F9278
:100E30005F926F927F928F929F92AF92BF92CF926A
:100E4000DF92EF92FF920F931F93CF93DF93CDB773
:100E5000DEB7CA1BDB0B0FB6F894DEBF0FBECDBFEB
:100E600009942A88398848885F846E847D848C84BC
:100E70009B84AA84B984C884DF80EE80FD800C81C5
:100E80001B81AA81B981CE0FD11D0FB6F894DEBFA8
:0C0E90000FBECDBFED010895F894FFCF18
:080E9C0000000000000000004E
:00000001FF
