:100000000C9434000C943E000C943E000C943E0082
:100010000C943E000C943E000C943E000C943E0068
:100020000C943E000C943E000C943E000C943E0058
:100030000C943E000C943E000C943E000C943E0048
:100040000C943E000C943E000C943E000C943E0038
:100050000C943E000C943E000C943E000C943E0028
:100060000C943E000C943E0011241FBECFEFD8E04C
:10007000DEBFCDBF0E9440000C9475000C940000C0
:10008000CF93DF93CDB7DEB72A970FB6F894DEBFD4
:100090000FBECDBF80E290E09A83898389819A81E7
:1000A00004969C838B8389819A8105969E838D8398
:1000B0008B819C8198878F838D819E819A87898788
:1000C0008F819885FC018081282F20618F81988500
:1000D000FC01208389859A85FC018081282F20617D
:0E00E00089859A85FC012083FFCFF894FFCF1D
:00000001FF
