:100000000C9497000C94B4000C94B4000C94B400BD
:100010000C94B4000C94B4000C94B4000C94B40090
:100020000C94B4000C94B4000C94B4000C94B40080
:100030000C94B4000C94B4000C94B4000C94B40070
:100040000C9431020C94B4000C94F5010C94A201B0
:100050000C9490010C94B4000C94B4000C94B40073
:100060000C94B4000C94B400BD024B034B03BD02CE
:100070004B034B034B034B034B034B034B034B0310
:100080004B034B034B034B034B034B034B034B0300
:100090004B034B03B8024B034B034B034B034B0384
:1000A0004B034B034B034B034B031503EF02EF02D0
:1000B00015034B034B03C202CB02D402DD02E6025E
:1000C0004B034B034B034B034B034B03EF02150353
:1000D00015034B034B034B034B034B034B034B03E6
:1000E0004B034B0342034B034B034B0339034B03BB
:1000F0004B034B034B034B034B034B034B034B0390
:100100004B034B034B034B034B034B034B034B037F
:100110004B03EF024B034B034B034B034B034B03CC
:100120004B034B0342034B034B034B033903112493
:100130001FBECFEFD8E0DEBFCDBF11E0A0E0B1E041
:10014000E6E1FFE002C005900D92AC35B107D9F7AA
:1001500012E0ACE5B1E001C01D92AD3EB107E1F7A0
:100160000E946A020C9489070C940000CF93DF93DD
:1001700000D0CDB7DEB79A838983000089819A8148
:10018000FC018081282F89819A8101969A83898335
:10019000822F0E94D200882389F70F900F90DF9161
:1001A000CF910895CF93DF931F92CDB7DEB78983A8
:1001B00080910001909101012981FC012083019629
:1001C00090930101809300018091000190910101C1
:1001D000F2E085329F0739F030F08DE591E09093A1
:1001E00001018093000181EC90E021EC30E0F90105
:1001F00020812062FC01208389810F90DF91CF91C3
:100200000895CF93DF93CDB7DEB784EC90E028E07C
:1002100030E0FC013183208382EC90E022EC30E07E
:10022000F90120812F73FC01208382EC90E022EC05
:1002300030E0F90120812F7CFC01208382EC90E0EA
:1002400022EC30E0F9012081277FFC01208382EC41
:1002500090E022EC30E0F90120812660FC0120834F
:1002600081EC90E021EC30E0F90120812861FC0173
:10027000208381EC90E021EC30E0F9012081206CBA
:10028000FC0120837894DF91CF910895CF93DF9381
:100290001F92CDB7DEB789838AE290E02AE230E090
:1002A000F90120812066FC01208384E490E024E4AD
:1002B00030E0F90120812062FC01208385E490E098
:1002C00025E430E0F90120812860FC01208384E4EA
:1002D00090E024E430E0F90120812360FC012083D8
:1002E00085E490E025E430E0F90120812460FC0100
:1002F00020838EE690E02EE630E0F9012081216037
:10030000FC01208387E490E02981FC01208386E4BE
:1003100090E0FC01108278940F90DF91CF910895C6
:100320001F920F9200905F000F921124CF93DF93E2
:10033000CDB7DEB7DF91CF910F9000925F000F90A5
:100340001F9018951F920F9200905F000F9211243A
:100350002F933F934F938F939F93EF93FF93CF935D
:10036000DF93CDB7DEB72091020130910301809178
:1003700000019091010128173907F9F026EC30E0CF
:100380008091020190910301FC014081F9014083B9
:100390000196909303018093020180910201909154
:1003A0000301F2E085329F0789F080F08DE591E04E
:1003B000909303018093020109C081EC90E021EC4D
:1003C00030E0F90120812F7DFC012083DF91CF9166
:1003D000FF91EF919F918F914F913F912F910F90AE
:1003E00000925F000F901F9018951F920F9200903F
:1003F0005F000F9211242F933F938F939F93EF935E
:10040000FF93CF93DF93CDB7DEB780910601909134
:10041000070126EC30E0F9012081FC0120830196E0
:100420009093070180930601809106019091070146
:10043000F2E08D3E9F0739F030F085E292E0909334
:10044000070180930601DF91CF91FF91EF919F917A
:100450008F913F912F910F9000925F000F901F900E
:1004600018951F920F9200905F000F9211242F9306
:100470003F934F935F936F937F938F939F93AF932C
:10048000BF93EF93FF93CF93DF93CDB7DEB79091F8
:100490005C0181E0983209F080E09F5F90935C01FD
:1004A000882321F00E94740210925C01DF91CF91A9
:1004B000FF91EF91BF91AF919F918F917F916F913C
:1004C0005F914F913F912F910F9000925F000F909D
:1004D0001F901895CF93DF93CDB7DEB70E9401012F
:1004E0008CE90E944601FFCF0F931F93CF93DF93B8
:1004F0001F92CDB7DEB720910601309107018091A0
:100500000401909105012817390709F4E4C080918E
:10051000040190910501FC012081298301969093AB
:100520000501809304018091040190910501F2E09E
:100530008D3E9F0739F030F085E292E090930501FF
:10054000809304018981882F90E0AA2797FDA095C8
:10055000BA2F4AE050E022E630E0841B950B2817C2
:10056000390708F498C08C5C9F4FFC010C948C04F4
:100570000E9472030E94DF0391C080E191E00E941B
:10058000B6008CC081E090E090930B0180930A014B
:100590000E94DF0383C08AE090E090930B01809378
:1005A0000A010E94DF037AC084E690E090930B0179
:1005B00080930A010E94DF0371C084EF91E0909361
:1005C0000B0180930A010E94DF0368C088EE93E06C
:1005D00090930B0180930A010E94DF035FC020917A
:1005E00008013091090180910A0190910B01A90144
:1005F000481B590BCA01909309018093080120916F
:1006000008013091090180910E0190910F01281786
:10061000390740F480910E0190910F0190930901E8
:10062000809308010E94720339C020910801309123
:10063000090180910A0190910B01820F931F909301
:1006400009018093080120910801309109018091EE
:100650000C0190910D018217930740F480910C01D9
:1006600090910D0190930901809308010E947203FB
:1006700015C086EB93E090930901809308010E94D6
:1006800072030CC082E098E0909309018093080106
:100690000E94720303C089810E94D20008E410E026
:1006A00080910801909109019C0140E050E08CE9A3
:1006B00090E0DC010E945104DC01CB0124EC39E024
:1006C00040E050E0BC01CD010E947004DA01C90194
:1006D000F801808301C000000F90DF91CF911F913E
:1006E0000F910895CF93DF93CDB7DEB7C456D109EC
:1006F0000FB6F894DEBF0FBECDBF20910801309138
:10070000090180910E0190910F01A901481B590B1D
:1007100080910C0190910D019695879596958795FE
:100720009C01ABE7B4E10E944504FC01F695E79516
:1007300080910E0190910F019695879596958795DA
:100740009C01ABE7B4E10E944504969587959F0113
:10075000281B390BCA01B9010E945C049B018091DE
:10076000080190910901432F4F932F93292F2F9325
:100770008F9383E191E0892F8F9383E191E08F93B1
:10078000CE010196892F8F93CE0101968F930E94FF
:10079000B4048DB79EB708960FB6F894DEBF0FBEAF
:1007A000CDBFCE0101960E94B600CC59DF4F0FB6E7
:1007B000F894DEBF0FBECDBFDF91CF910895CF93E8
:1007C000DF93CDB7DEB7C456D1090FB6F894DEBFBC
:1007D0000FBECDBF40910A0150910B0180910C01D9
:1007E00090910D0196958795969587959C01ABE71D
:1007F000B4E10E944504FC01F695E79580910E0155
:1008000090910F0196958795969587959C01ABE7FA
:10081000B4E10E944504969587959F01281B390BEA
:10082000CA01B9010E945C049B0180910A01909168
:100830000B01432F4F932F93292F2F938F9383E3F4
:1008400091E0892F8F9383E391E08F93CE010196FE
:10085000892F8F93CE0101968F930E94B4048DB798
:100860009EB708960FB6F894DEBF0FBECDBFCE017F
:1008700001960E94B600CC59DF4F0FB6F894DEBF48
:100880000FBECDBFDF91CF910895A29FB001B39F5E
:10089000C001A39F01D0B29F700D811D1124911D35
:1008A00008950E944504A59F900DB49F900DA49FAC
:1008B000800D911D11240895AA1BBB1B51E107C097
:1008C000AA1FBB1FA617B70710F0A61BB70B881FE0
:1008D000991F5A95A9F780959095BC01CD0108956F
:1008E000052E97FB16F4009407D057FD0DD00E94FB
:1008F000920407FC09D07EF49095809570956195DF
:100900007F4F8F4F9F4F089550954095309521957B
:100910003F4F4F4F5F4F0895EE0FFF1F0590F4912B
:10092000E02D0994A1E21A2EAA1BBB1BFD010DC0EC
:10093000AA1FBB1FEE1FFF1FA217B307E407F5078F
:1009400020F0A21BB30BE40BF50B661F771F881F6B
:10095000991F1A9469F760957095809590959B0101
:10096000AC01BD01CF010895AEE0B0E0EAEBF4E0E8
:100970000C9460070D891E8986E08C831A83098395
:100980008FEF9FE79E838D83CE014996AC016F89DF
:10099000788DCE0101960E94D604EF81F885E00F94
:1009A000F11F10822E96E4E00C947C07ACE0B0E0DE
:1009B000ECEDF4E00C9452077C016B018A01FC0120
:1009C00017821682838181FFC6C188248394912C6B
:1009D0008C0E9D1EF7019381F60193FD859193FF87
:1009E00081916F01882309F4B2C1853239F493FDF6
:1009F000859193FF81916F01853229F4B70190E0D1
:100A00000E94C806E7CF512C312C20E02032A8F4F8
:100A10008B3261F028F4803251F0833271F40BC0D4
:100A20008D3239F0803349F4216028C0226024607F
:100A300025C0286023C0206121C027FD27C0382F92
:100A400030533A3078F426FF06C0FAE05F9E300D4E
:100A50001124532E13C08AE0389E300D1124332EFA
:100A600020620CC08E3221F426FD71C1206406C0C4
:100A70008C3611F4206802C0883641F4F60193FDEB
:100A8000859193FF81916F018111C0CF982F95546B
:100A9000933018F09052933028F40C5F1F4FFFE30F
:100AA000F9830DC0833631F0833771F0833509F057
:100AB0005EC023C0F801808189830E5F1F4F4424EC
:100AC0004394512C540115C03801F2E06F0E711C93
:100AD000F801A080B18026FF03C0652D70E002C040
:100AE0006FEF7FEFC5012C870E94BD062C018301AB
:100AF0002C856FE7262E222218C03801F2E06F0EF7
:100B0000711CF801A080B18026FF03C0652D70E044
:100B100002C06FEF7FEFC5012C870E94B2062C0147
:100B20002C8550E8252E222A830123FC1CC006C0F8
:100B3000B70180E290E00E94C8063A94832D90E0CD
:100B400048165906A8F30FC0F50127FC859127FE2A
:100B500081915F01B70190E00E94C80631103A947C
:100B6000F1E04F1A51084114510471F7EDC0843679
:100B700011F0893641F5F80127FF07C060817181C6
:100B8000828193810C5F1F4F08C06081718188272B
:100B900077FD8095982F0E5F1F4F4FE6B42EB2223F
:100BA00097FF09C090958095709561957F4F8F4F05
:100BB0009F4FF0E8BF2A2AE030E0A4010E94F4062B
:100BC000A82EA81843C0853731F43FEEB32EB222C9
:100BD0002AE030E024C099EFB92EB2228F36B9F066
:100BE00020F4883509F0B3C00DC0803721F0883774
:100BF00009F0ADC002C020E1B22AB4FE0BC084E00F
:100C0000B82A08C024FF09C0E6E0BE2A06C028E0D2
:100C100030E005C020E130E002C020E132E0F80120
:100C2000B7FE07C060817181828193810C5F1F4F85
:100C300006C06081718180E090E00E5F1F4FA401CB
:100C40000E94F406A82EA818FFE7BF22B6FE0BC02C
:100C50002B2D2E7FA51450F4B4FE0AC0B2FC08C0A0
:100C60002B2D2E7E05C07A2C2B2D03C07A2C01C093
:100C7000752C24FF0DC0FE01EA0DF11D808180332B
:100C800011F4297E09C022FF06C07394739404C036
:100C9000822F867809F0739423FD14C020FF0FC0C3
:100CA0005A2C731460F4530C5718732C08C0B701F6
:100CB00080E290E02C870E94C80673942C85731400
:100CC000B0F304C0731410F4371801C0312C24FFA2
:100CD00012C0B70180E390E02C870E94C8062C85E3
:100CE00022FF1EC021FF03C088E590E002C088E714
:100CF00090E0B7010CC0822F867891F021FD02C0F0
:100D000080E201C08BE227FD8DE2B70190E00E94F6
:100D1000C80606C0B70180E390E00E94C8065A9456
:100D2000A514C0F3AA94F401EA0DF11DB701808166
:100D300090E00E94C806A110F5CF06C0B70180E27E
:100D400090E00E94C8063A943110F8CF43CEF701E4
:100D50002681378102C02FEF3FEFC9012C96E2E1D7
:100D60000C946E07FC010590615070400110D8F79B
:100D7000809590958E0F9F1F0895FC0161507040E3
:100D800001900110D8F7809590958E0F9F1F0895C0
:100D90000F931F93CF93DF938C01EB018B8181FD28
:100DA00003C00FEF1FEF1AC082FF0DC02E813F81DD
:100DB0008C819D812817390764F4E881F9810193BA
:100DC000F983E88306C0E885F985802F0995892B8A
:100DD00041F78E819F8101969F838E83C801DF91A9
:100DE000CF911F910F910895FA01AA27283051F150
:100DF000203181F1E8946F936E7F6E5F7F4F8F4F4C
:100E00009F4FAF4FB1E03ED0B4E03CD0670F781FAA
:100E1000891F9A1FA11D680F791F8A1F911DA11D8F
:100E20006A0F711D811D911DA11D20D009F46894C8
:100E30003F912AE0269F11243019305D3193DEF670
:100E4000CF010895462F4770405D4193B3E00FD026
:100E5000C9F7F6CF462F4F70405D4A3318F0495D11
:100E600031FD4052419302D0A9F7EACFB4E0A695F4
:100E70009795879577956795BA95C9F70097610516
:100E8000710508959B01AC010A2E0694579547956C
:100E900037952795BA95C9F7620F731F841F951F61
:100EA000A01D08952F923F924F925F926F927F9272
:100EB0008F929F92AF92BF92CF92DF92EF92FF926A
:100EC0000F931F93CF93DF93CDB7DEB7CA1BDB0B16
:100ED0000FB6F894DEBF0FBECDBF09942A883988BB
:100EE00048885F846E847D848C849B84AA84B984C2
:100EF000C884DF80EE80FD800C811B81AA81B981CE
:100F0000CE0FD11D0FB6F894DEBF0FBECDBFED01E1
:060F10000895F894FFCFE4
:100F16005D015D0125022502E8030A00D007E8030A
:100F26000D0A0044757479203D202564206F7220D7
:100F360025642525206F66207468726F74746C654D
:100F46000D0A005374657053697A65203D20256447
:100F5600206F722025642525206F662066756C6CCF
:0C0F6600207468726F74746C650D0A00D2
:00000001FF
