:100000000C9434000C9451000C9451000C94510049
:100010000C9451000C9451000C9451000C9451001C
:100020000C9451000C9451000C9451000C9451000C
:100030000C9451000C9451000C9451000C945100FC
:100040000C942D030C9451000C94F3000C94BD00FF
:100050000C94B3000C9451000C9451000C9451007A
:100060000C9451000C94510011241FBECFEFD8E026
:10007000DEBFCDBF15E0A0E0B1E0E4E7FCE002C0E8
:1000800005900D92A83CB107D9F717E0A8ECB5E0B0
:1000900001C01D92AD35B107E1F70E945D030C94DC
:1000A00038060C940000419A0895E0910701F09100
:1000B0000801819396E0E539F90709F028F4F093F7
:1000C0000801E093070106C02DEC35E030930801EC
:1000D000209307019091C10090629093C100089510
:1000E000CF93DF93EC01F89489910E945500811120
:1000F000FBCF7894DF91CF91089588E090E09093C2
:10010000C5008093C400E2ECF0E080818F738083AF
:1001100080818F7C80838081877F808380818660DF
:100120008083E1ECF0E08081886180838081806C55
:100130008083789408959AB190669AB994B5906244
:1001400094BD95B5986095BD94B5936094BD95B5F3
:10015000946095BDEEE6F0E090819160908387BD5C
:1001600016BC789408951F920F920FB60F92112427
:100170000F900FBE0F901F9018951F920F920FB601
:100180000F9211248F939F93EF93FF93E0910501BA
:10019000F09106018091070190910801E817F90795
:1001A000A1F081918093C60086E0E539F80709F057
:1001B00028F4F0930601E09305010CC08DEC95E066
:1001C000909306018093050105C08091C1008F7D49
:1001D0008093C100FF91EF919F918F910F900FBE7F
:1001E0000F901F9018951F920F920FB60F92112427
:1001F0008F939F93EF93FF938091C600E09101014D
:10020000F0910201819387E0ED35F80709F028F4B9
:10021000F0930201E093010106C085E996E0909316
:10022000020180930101FF91EF919F918F910F90B7
:100230000FBE0F901F9018950F931F93CF93DF93CE
:10024000CDB7DEB7C456D1090FB6F894DEBF0FBEE6
:10025000CDBF8091CB058F938091CA058F9389E0A4
:1002600095E09F938F938E010F5F1F4F1F930F9306
:100270000E946303C8010E9470000F900F900F90BE
:100280000F900F900F90CC59DF4F0FB6F894DEBF50
:100290000FBECDBFDF91CF911F910F910895813097
:1002A00011F40C945300811102C0419808958DE21D
:1002B00095E00C947000813011F4429A08958111F8
:1002C00002C04298089587E395E00C947000813055
:1002D00011F4439A0895811102C04398089581E46E
:1002E00095E00C9470008038910508F060C077FDAF
:1002F0005EC0603471050CF05AC04130510531F0D8
:10030000F8F04230510509F052C036C0FB01A3E0BD
:10031000F595E795AA95E1F7F695FE2FEE27F79567
:10032000E795E80FF91FE75FFE4F67707727062E06
:1003300001C0440F0A94EAF78081842B80830895DA
:10034000FB0143E0F595E7954A95E1F7F695FE2F19
:10035000EE27F795E795E80FF91FE75FFE4F677007
:10036000772781E090E0062E01C0880F0A94EAF713
:100370008095908198231AC0FB0123E0F595E795BD
:100380002A95E1F7F695FE2FEE27F795E795E80F0A
:10039000F91FE75FFE4F6770772781E090E0062E38
:1003A00001C0880F0A94EAF79081982790830895F6
:1003B00087B18E6087B988E088B984B18C6284B9CE
:1003C00088E285B980E58CBD089528E030E090E8AA
:1003D0002D98492F482311F02B9A01C02B982D9A64
:1003E000969521503109A1F708950F931F93CF934C
:1003F000DF93082FC8E0D0E010E8812F802311F0B0
:100400008EE201C080E20E94550016952197A9F75F
:10041000DF91CF911F910F910895F8948EBD0DB487
:1004200007FEFDCF78948091CA059091CB05019687
:100430009093CB058093CA0580E00895CF93C82F91
:100440000E945300429A80E00E944F018C2F0E942C
:100450000D02CF910C945300CF93C82F0E945300EC
:1004600080E00E945B0180E00E944F018C2F0E947F
:100470000D02CF910C9453008EEA0E942C0285ED60
:100480000E942C0280E80E942C0288EA0E942C0222
:100490008FE30E942C0283ED0E942C0280E00E94D8
:1004A0002C0280E40E942C028DE80E942C0280E144
:1004B0000E942C0280E20E942C0280E00E942C020A
:1004C00081EA0E942C0288EC0E942C028AED0E9494
:1004D0002C0282E10E942C0281E80E942C028FE90A
:1004E0000E942C0289ED0E942C0282E20E942C02C2
:1004F0008BED0E942C0280E40E942C028EE20E946E
:100500002C0284EA0E942C0286EA0E942C028FEAC6
:100510000C942C02CF93DF9381E20E942C0280E0A6
:100520000E942C028FE70E942C0282E20E942C0281
:1005300080E00E942C0287E00E942C020E9453005F
:10054000429A80E00E944F01C9E0D1E089910E9467
:100550000D0285E0C930D807C9F7DF91CF910C941F
:100560005300E0910301F091040180910101909109
:1005700002018E179F0709F46FC0219187E0ED35C6
:10058000F80709F028F4F0930401E093030106C092
:1005900085E996E09093040180930301233361F190
:1005A00068F42D30D9F020F42A3009F055C016C077
:1005B0002133B9F0223309F04FC017C0233609F4B4
:1005C00046C030F4243369F1253309F045C030C00A
:1005D0002436C9F1223709F03FC00EC08FE795E0FD
:1005E00002C08EE495E00C94700087E695E00E94CE
:1005F00070000E94D80122C0809100010E94670112
:1006000080910001813029F41092000182E895E088
:10061000EACF811121C081E0809300018FE895E04D
:10062000E2CF8BE995E00E9470000E943C0206C078
:1006300080EB95E00E9470000E948A0289E795E0B5
:100640000E94700007C08FEF0E941E0203C08FEF50
:100650000E942C020C941C0108951F920F920FB659
:100660000F9211242F933F934F935F936F937F9338
:100670008F939F93AF93BF93EF93FF938091CC059C
:10068000982F9F5F9093CC05883221F40E94B1028D
:100690001092CC05FF91EF91BF91AF919F918F91F7
:1006A0007F916F915F914F913F912F910F900FBE6E
:1006B0000F901F9018950C940D020E947D008FEFF3
:1006C0000E949B00FFCFAEE0B0E0E9E6F3E00C94BF
:1006D0000F060D891E8986E08C831A8309838FEFAC
:1006E0009FE79E838D83CE014996AC016F89788DFB
:1006F000CE0101960E948503EF81F885E00FF11F7E
:1007000010822E96E4E00C942B06ACE0B0E0EBE80F
:10071000F3E00C9401067C016B018A01FC01178255
:100720001682838181FFC6C188248394912C8C0E0C
:100730009D1EF7019381F60193FD859193FF8191B1
:100740006F01882309F4B2C1853239F493FD859194
:1007500093FF81916F01853229F4B70190E00E94E7
:100760007705E7CF512C312C20E02032A8F48B32D2
:1007700061F028F4803251F0833271F40BC08D3275
:1007800039F0803349F4216028C02260246025C0FC
:10079000286023C0206121C027FD27C0382F305397
:1007A0003A3078F426FF06C0FAE05F9E300D11243F
:1007B000532E13C08AE0389E300D1124332E206250
:1007C0000CC08E3221F426FD71C1206406C08C3627
:1007D00011F4206802C0883641F4F60193FD85913A
:1007E00093FF81916F018111C0CF982F9554933061
:1007F00018F09052933028F40C5F1F4FFFE3F983F9
:100800000DC0833631F0833771F0833509F05EC057
:1008100023C0F801808189830E5F1F4F44244394D5
:10082000512C540115C03801F2E06F0E711CF80113
:10083000A080B18026FF03C0652D70E002C06FEF7D
:100840007FEFC5012C870E946C052C0183012C854C
:100850006FE7262E222218C03801F2E06F0E711CBD
:10086000F801A080B18026FF03C0652D70E002C0B2
:100870006FEF7FEFC5012C870E9461052C012C854D
:1008800050E8252E222A830123FC1CC006C0B70194
:1008900080E290E00E9477053A94832D90E048161C
:1008A0005906A8F30FC0F50127FC859127FE819119
:1008B0005F01B70190E00E94770531103A94F1E0B2
:1008C0004F1A51084114510471F7EDC0843611F0EC
:1008D000893641F5F80127FF07C060817181828167
:1008E00093810C5F1F4F08C060817181882777FD5D
:1008F0008095982F0E5F1F4F4FE6B42EB22297FFC0
:1009000009C090958095709561957F4F8F4F9F4F4F
:10091000F0E8BF2A2AE030E0A4010E94A305A82E37
:10092000A81843C0853731F43FEEB32EB2222AE037
:1009300030E024C099EFB92EB2228F36B9F020F4FE
:10094000883509F0B3C00DC0803721F0883709F031
:10095000ADC002C020E1B22AB4FE0BC084E0B82AC8
:1009600008C024FF09C0E6E0BE2A06C028E030E047
:1009700005C020E130E002C020E132E0F801B7FE1E
:1009800007C060817181828193810C5F1F4F06C017
:100990006081718180E090E00E5F1F4FA4010E9492
:1009A000A305A82EA818FFE7BF22B6FE0BC02B2D6B
:1009B0002E7FA51450F4B4FE0AC0B2FC08C02B2D43
:1009C0002E7E05C07A2C2B2D03C07A2C01C0752CED
:1009D00024FF0DC0FE01EA0DF11D8081803311F46A
:1009E000297E09C022FF06C07394739404C0822F2D
:1009F000867809F0739423FD14C020FF0FC05A2C91
:100A0000731460F4530C5718732C08C0B70180E2BC
:100A100090E02C870E94770573942C857314B0F3B3
:100A200004C0731410F4371801C0312C24FF12C015
:100A3000B70180E390E02C870E9477052C8522FF88
:100A40001EC021FF03C088E590E002C088E790E067
:100A5000B7010CC0822F867891F021FD02C080E2A0
:100A600001C08BE227FD8DE2B70190E00E9477057F
:100A700006C0B70180E390E00E9477055A94A51460
:100A8000C0F3AA94F401EA0DF11DB701808190E052
:100A90000E947705A110F5CF06C0B70180E290E073
:100AA0000E9477053A943110F8CF43CEF7012681A2
:100AB000378102C02FEF3FEFC9012C96E2E10C9481
:100AC0001D06FC010590615070400110D8F780951B
:100AD00090958E0F9F1F0895FC016150704001900A
:100AE0000110D8F7809590958E0F9F1F08950F9352
:100AF0001F93CF93DF938C01EB018B8181FD03C0AA
:100B00000FEF1FEF1AC082FF0DC02E813F818C8135
:100B10009D812817390764F4E881F9810193F983ED
:100B2000E88306C0E885F985802F0995892B41F770
:100B30008E819F8101969F838E83C801DF91CF9123
:100B40001F910F910895FA01AA27283051F1203101
:100B500081F1E8946F936E7F6E5F7F4F8F4F9F4F51
:100B6000AF4FB1E03ED0B4E03CD0670F781F891F93
:100B70009A1FA11D680F791F8A1F911DA11D6A0F61
:100B8000711D811D911DA11D20D009F468943F9114
:100B90002AE0269F11243019305D3193DEF6CF0113
:100BA0000895462F4770405D4193B3E00FD0C9F7D9
:100BB000F6CF462F4F70405D4A3318F0495D31FD46
:100BC0004052419302D0A9F7EACFB4E0A695979599
:100BD000879577956795BA95C9F70097610571056F
:100BE00008959B01AC010A2E0694579547953795B9
:100BF0002795BA95C9F7620F731F841F951FA01D13
:100C000008952F923F924F925F926F927F928F92B0
:100C10009F92AF92BF92CF92DF92EF92FF920F938B
:100C20001F93CF93DF93CDB7DEB7CA1BDB0B0FB695
:100C3000F894DEBF0FBECDBF09942A883988488852
:100C40005F846E847D848C849B84AA84B984C884E8
:100C5000DF80EE80FD800C811B81AA81B981CE0FDF
:100C6000D11D0FB6F894DEBF0FBECDBFED010895C4
:040C7000F894FFCF26
:100C74000195069506CD05CD050000000000000095
:100C84000000000000000000000000000000000060
:100C94000000000000000000000000000000000050
:100CA4000000000000000000000000000000000040
:100CB40000000000000000008080800000000000B0
:100CC400000000000000000000008080C0C00000A0
:100CD4000000000000000000000000000000000010
:100CE4000000000000000000000000000000000000
:100CF40000000000000000000000000000000000F0
:100D04000000000000000000000000000080C0E0BF
:100D1400F0F8FCF8E0000000000000000000000013
:100D2400000000000000808080808000808000003F
:100D34000000808080808000FFFFFF0000000080B2
:100D440080808000008080000080FFFF8080008021
:100D5400800080808080008080000000000080800F
:100D640000008C8E84000080F8F8F88000000000F9
:100D7400000000000000000000F0F0F0F0F0F0F0DF
:100D8400F0F0F0F0F0E0E0C08000E0FCFEFFFFFFD8
:100D94007FFFFFFFFFFF00000000000000000000D5
:100DA40000000000FEFFC70101010183FFFF0000F6
:100DB4007CFEC70101010183FFFFFF0038FEC783EA
:100DC40001010183C7FFFF000001FFFF010100FFD4
:100DD400FF0701010100007FFF80000000FFFF7F8B
:100DE4000000FFFFFF000001FFFFFF010000000003
:100DF400000000000000000000030F3F7F7FFFFFA2
:100E0400FFFFFFFFFFE7C7C78F8F9FBFFFFFC3C071
:100E1400F0FFFFFFFFFFFCFCFCFCFCFCFCFCF8F813
:100E2400F0F0E0C000010303030303010303000027
:100E34000000010303030301010301000000010397
:100E44000303030101030300000003030000000384
:100E5400030000000000000001030303030301007A
:100E64000000010301000000030301000000000072
:100E740000000000000000000000000080C0E0F05E
:100E8400F9FFFFFFFFFF3F1F0F87C7F7FFFF1F1F7C
:100E94003DFCF8F8F8F87C7DFFFFFFFFFFFFFFFF44
:100EA4007F3F0F070030300000000000000000000A
:100EB40000000000000000000000000000FEFEFC36
:100EC400000000000000000000000000000000001E
:100ED400000000000000E0C000000000000000006E
:100EE400000000303000000000000000000000009E
:100EF40000000000000000000000C0FEFFFFFFFF34
:100F0400FFFFFFFFFF7F7F3F1F0F071F7FFFFFF8DC
:100F1400F8FFFFFFFFFFFEF8E00000000100000003
:100F24000000000000FEFE000000FCFEFC0C0606B3
:100F34000EFCF80000F0F81C0E0606060CFFFFFF7E
:100F44000000FEFE00000000FCFEFC00183C7E6673
:100F5400E6CE84000006FFFF0606FCFEFC0C060637
:100F6400060000FEFE0000C0F8FC4E4646464E7CDD
:100F74007840183C76E6CECC8000000000000000EB
:100F84000000000000000000000000000001070F46
:100F94001F1F3F3F3F3F1F0F0300000000000000E2
:100FA40000000000000F0F0000000F0F0F000000F2
:100FB400000F0F000003070E0C18180C060F0F0F7C
:100FC4000000010F0E0C180C0F070100040E0C1882
:100FD4000C0F070000000F0F00000F0F0F000000A0
:100FE4000000000F0F00000007070C0C181C0C0673
:100FF4000600040E0C180C0F07000000000000008F
:1010040000000000000000000000000000000000DC
:1010140000000000000000000000000000000000CC
:1010240000000000000000000000000000000000BC
:1010340000000000000000000000000000000000AC
:10104400000000000000000000000000000000009C
:10105400000000000000000000000000000000008C
:10106400000000000000000000000000000000007C
:1010740000000000000000000043756D756C617491
:101084006976652062797465732073656E74206F68
:101094006E20535049203D2025640D0A00435320FF
:1010A400425547210D0A00444320425547210D0A69
:1010B40000524553455420425547210D0A00436FC1
:1010C4006E6669726D656420555341525420696E91
:1010D400697428290D0A00696E697448575F535072
:1010E4004928292E2E2E0D0A00646F6E6521200DCD
:1010F4000A00524553455420484947480D0A0052B6
:1011040045534554204C4F570D0A00535344313333
:1011140030365F626567696E28292E2E2E0D0A000F
:10112400535344313330365F646973706C6179288A
:08113400292E2E2E0D0A0000E9
:00000001FF
