:100000000C9434000C9451000C9451000C94510049
:100010000C9451000C9451000C9451000C9451001C
:100020000C9451000C9451000C9451000C9451000C
:100030000C9451000C9451000C9451000C945100FC
:100040000C94E4030C9451000C94F5000C94BF0044
:100050000C94B5000C9451000C9451000C94510078
:100060000C9451000C94510011241FBECFEFD8E026
:10007000DEBFCDBF12E0A0E0B1E0E0EFFDE002C0E6
:1000800005900D92A434B107D9F717E0A4E4B2E0CB
:1000900001C01D92AA3DB107E1F70E9414040C941F
:1000A000F6060C940000419A0895429A0895E09152
:1000B0000701F0910801819397E0E231F90709F017
:1000C00028F4F0930801E093070106C02AE436E023
:1000D00030930801209307019091C10090629093A2
:1000E000C1000895CF93DF93EC01F89489910E94A9
:1000F00057008111FBCF7894DF91CF91089588E06C
:1001000090E09093C5008093C400E2ECF0E0808121
:100110008F73808380818F7C80838081877F8083C1
:10012000808186608083E1ECF0E08081886180835B
:100130008081806C8083789408959AB190669AB992
:1001400094B5906294BD95B5986095BD94B5936053
:1001500094BD95B5946095BDEEE6F0E09081916018
:10016000908387BD16BC789408951F920F920FB6A6
:100170000F9211240F900FBE0F901F9018951F9291
:100180000F920FB60F9211248F939F93EF93FF93CB
:10019000E0910501F091060180910701909108011D
:1001A000E817F907A1F081918093C60087E0E2315A
:1001B000F80709F028F4F0930601E09305010CC05C
:1001C0008AE496E0909306018093050105C0809132
:1001D000C1008F7D8093C100FF91EF919F918F911E
:1001E0000F900FBE0F901F9018951F920F920FB691
:1001F0000F9211248F939F93EF93FF938091C600EA
:10020000E0910101F0910201819387E0EA3DF80756
:1002100009F028F4F0930201E093010106C082E1A5
:1002200097E09093020180930101FF91EF919F91DC
:100230008F910F900FBE0F901F9018950F931F93E3
:10024000CF93DF93CDB7DEB7C456D1090FB6F8947C
:10025000DEBF0FBECDBF809148028F9380914702D1
:100260008F9389E091E09F938F938E010F5F1F4FD3
:100270001F930F930E942104C8010E947200809175
:1002800046028F93809145028F938FE291E09F9376
:100290008F931F930F930E942104C8010E94720044
:1002A0000FB6F894DEBF0FBECDBFCC59DF4F0FB6EF
:1002B000F894DEBF0FBECDBFDF91CF911F910F919C
:1002C0000895813011F40C945300811102C04198BB
:1002D000089585E591E00C947200813011F40C943E
:1002E0005500811102C0429808958FE591E00C9469
:1002F0007200813011F4439A0895811102C043982D
:10030000089589E691E00C9472008038910508F018
:1003100060C077FD5EC0603471050CF05AC041309A
:10032000510531F0F8F04230510509F052C036C0A5
:10033000FB01A3E0F595E795AA95E1F7F695FE2F69
:10034000EE27F795E795E80FF91FE65BFD4F67701D
:100350007727062E01C0440F0A94EAF78081842B88
:1003600080830895FB0143E0F595E7954A95E1F711
:10037000F695FE2FEE27F795E795E80FF91FE65B58
:10038000FD4F6770772781E090E0062E01C0880F4F
:100390000A94EAF78095908198231AC0FB0123E024
:1003A000F595E7952A95E1F7F695FE2FEE27F79557
:1003B000E795E80FF91FE65BFD4F6770772781E04F
:1003C00090E0062E01C0880F0A94EAF790819827E2
:1003D0009083089587B18E6087B988E088B984B129
:1003E0008C6284B915B880E58CBD0E9453000C94D2
:1003F000550028E030E090E82D98492F482311F06F
:100400002B9A01C02B982D9A969521503109A1F76E
:100410008091450290914602019690934602809306
:10042000450208950F931F93CF93DF93082FC8E0E1
:10043000D0E010E8812F802311F08EE201C080E22D
:100440000E94570016952197A9F7DF91CF911F9130
:100450000F910895F8948EBD0DB407FEFDCF7894EA
:1004600080914702909148020196909348028093B0
:1004700047028EB50895CF93C82F0E9453000E9463
:10048000550080E00E9461018C2F0E942A020E9488
:100490005300CF910C945500CF93C82F0E94530066
:1004A00080E00E946D0180E00E9461018C2F0E941B
:1004B0002A020E945300CF910C9455008EEA0E94AC
:1004C0004C0285ED0E944C0280E80E944C0288EAB2
:1004D0000E944C028FE30E944C0283ED0E944C026A
:1004E00080E00E944C0280E40E944C028DE80E9451
:1004F0004C0284E10E944C0280E20E944C0280E0A7
:100500000E944C0281EA0E944C0288EC0E944C023C
:100510008AED0E944C0282E10E944C0281E80E9416
:100520004C028FEC0E944C0289ED0E944C0281EF3C
:100530000E944C028BED0E944C0280E40E944C020F
:100540008EE20E944C0284EA0E944C0286EA0E94DB
:100550004C028FEA0C944C02CF93DF9381E20E940D
:100560004C0280E00E944C028FE70E944C0282E223
:100570000E944C0280E00E944C0287E00E944C02E4
:100580000E9453000E94550080E00E946101CAE46D
:10059000D2E089910E942A0286E0CA34D807C9F7BE
:1005A0000E945300DF91CF910C9455000F931F933D
:1005B000CF93DF93CDB7DEB7C456D1090FB6F89409
:1005C000DEBF0FBECDBFE0910301F0910401809129
:1005D0000101909102018E179F0709F4E9C0219152
:1005E00087E0EA3DF80709F028F4F0930401E0936E
:1005F000030106C082E197E0909304018093030118
:10060000243309F45DC078F4213309F130F42A3041
:10061000D9F02D3009F0CCC017C02233D9F02333E4
:1006200009F0C6C020C0243609F4B9C038F4253317
:1006300009F44DC0233609F0BBC0B5C0223759F1CB
:10064000243709F0B5C04EC087EA91E0A5C086E71F
:1006500091E0A2C08FE891E00E9472000E94EA013E
:1006600081EA91E03CC060914402862F8F5F8093C5
:10067000440240E054E070E08AE492E0CC59DF4F5D
:100680000FB6F894DEBF0FBECDBFDF91CF911F91A3
:100690000F910C941A04809100010E9479018091BD
:1006A0000001813029F4109200018AEA91E074C0BF
:1006B00081117EC081E08093000187EB91E06CC0E6
:1006C00083EC91E00E9472000E945E0206C082EEFE
:1006D00091E00E9472000E94AC0289ED91E00E94BC
:1006E000720064C084B11F928F938AEF91E09F9350
:1006F0008F938E010F5F1F4F1F930F930E94210452
:10070000C8010E94720087B11F928F9386E092E029
:100710009F938F931F930F930E942104C8010E94FF
:10072000720085B11F928F9382E192E09F938F9325
:100730001F930F930E942104C8010E94720088B188
:100740001F928F938FE192E09F938F931F930F934C
:100750000E942104C8010E9472008CB51F928F93E1
:100760008CE292E09F938F931F930F930E9421043A
:10077000C8010E9472008DB51F928F9388E392E0AA
:100780009F938F931F930F930E9421040FB6F894A9
:10079000DEBF0FBECDBFC8010E94720009C08FEF3F
:1007A0000E943B0203C08FEF0E944C020E941E0178
:1007B000CC59DF4F0FB6F894DEBF0FBECDBFDF912F
:1007C000CF911F910F9108951F920F920FB60F9224
:1007D00011242F933F934F935F936F937F938F9346
:1007E0009F93AF93BF93EF93FF9380914902982F0C
:1007F0009F5F90934902883221F40E94D6021092A2
:100800004902FF91EF91BF91AF919F918F917F919D
:100810006F915F914F913F912F910F900FBE0F906D
:100820001F9018950C942A020E947F008FEF0E945F
:100830009D00FFCFDC0101C06D9341505040E0F7B7
:100840000895AEE0B0E0E7E2F4E00C94CD060D8947
:100850001E8986E08C831A8309838FEF9FE79E832E
:100860008D83CE014996AC016F89788DCE010196BA
:100870000E944304EF81F885E00FF11F10822E964D
:10088000E4E00C94E906ACE0B0E0E9E4F4E00C94B8
:10089000BF067C016B018A01FC01178216828381ED
:1008A00081FFC6C188248394912C8C0E9D1EF70174
:1008B0009381F60193FD859193FF81916F018823C8
:1008C00009F4B2C1853239F493FD859193FF81918A
:1008D0006F01853229F4B70190E00E943506E7CF19
:1008E000512C312C20E02032A8F48B3261F028F416
:1008F000803251F0833271F40BC08D3239F0803385
:1009000049F4216028C02260246025C0286023C0EB
:10091000206121C027FD27C0382F30533A3078F4AA
:1009200026FF06C0FAE05F9E300D1124532E13C03F
:100930008AE0389E300D1124332E20620CC08E3296
:1009400021F426FD71C1206406C08C3611F42068A4
:1009500002C0883641F4F60193FD859193FF8191A1
:100960006F018111C0CF982F9554933018F0905299
:10097000933028F40C5F1F4FFFE3F9830DC08336DB
:1009800031F0833771F0833509F05EC023C0F80180
:10099000808189830E5F1F4F44244394512C54015E
:1009A00015C03801F2E06F0E711CF801A080B18013
:1009B00026FF03C0652D70E002C06FEF7FEFC50119
:1009C0002C870E942A062C0183012C856FE7262E96
:1009D000222218C03801F2E06F0E711CF801A080CD
:1009E000B18026FF03C0652D70E002C06FEF7FEF7E
:1009F000C5012C870E941F062C012C8550E8252E4E
:100A0000222A830123FC1CC006C0B70180E290E0CB
:100A10000E9435063A94832D90E048165906A8F3B3
:100A20000FC0F50127FC859127FE81915F01B70179
:100A300090E00E94350631103A94F1E04F1A5108C7
:100A40004114510471F7EDC0843611F0893641F537
:100A5000F80127FF07C060817181828193810C5F5B
:100A60001F4F08C060817181882777FD8095982F7E
:100A70000E5F1F4F4FE6B42EB22297FF09C090952C
:100A80008095709561957F4F8F4F9F4FF0E8BF2AFB
:100A90002AE030E0A4010E946106A82EA81843C0F5
:100AA000853731F43FEEB32EB2222AE030E024C085
:100AB00099EFB92EB2228F36B9F020F4883509F0BB
:100AC000B3C00DC0803721F0883709F0ADC002C037
:100AD00020E1B22AB4FE0BC084E0B82A08C024FF8B
:100AE00009C0E6E0BE2A06C028E030E005C020E1EB
:100AF00030E002C020E132E0F801B7FE07C06081BB
:100B00007181828193810C5F1F4F06C0608171816A
:100B100080E090E00E5F1F4FA4010E946106A82EA6
:100B2000A818FFE7BF22B6FE0BC02B2D2E7FA51401
:100B300050F4B4FE0AC0B2FC08C02B2D2E7E05C0B6
:100B40007A2C2B2D03C07A2C01C0752C24FF0DC0EC
:100B5000FE01EA0DF11D8081803311F4297E09C068
:100B600022FF06C07394739404C0822F867809F024
:100B7000739423FD14C020FF0FC05A2C731460F42B
:100B8000530C5718732C08C0B70180E290E02C87F3
:100B90000E94350673942C857314B0F304C073144B
:100BA00010F4371801C0312C24FF12C0B70180E3C4
:100BB00090E02C870E9435062C8522FF1EC021FF65
:100BC00003C088E590E002C088E790E0B7010CC060
:100BD000822F867891F021FD02C080E201C08BE275
:100BE00027FD8DE2B70190E00E94350606C0B701EF
:100BF00080E390E00E9435065A94A514C0F3AA94AD
:100C0000F401EA0DF11DB701808190E00E943506E4
:100C1000A110F5CF06C0B70180E290E00E94350632
:100C20003A943110F8CF43CEF7012681378102C0C4
:100C30002FEF3FEFC9012C96E2E10C94DB06FC019B
:100C40000590615070400110D8F7809590958E0FF7
:100C50009F1F0895FC016150704001900110D8F76A
:100C6000809590958E0F9F1F08950F931F93CF939C
:100C7000DF938C01EB018B8181FD03C00FEF1FEF30
:100C80001AC082FF0DC02E813F818C819D81281763
:100C9000390764F4E881F9810193F983E88306C098
:100CA000E885F985802F0995892B41F78E819F81F1
:100CB00001969F838E83C801DF91CF911F910F9181
:100CC0000895FA01AA27283051F1203181F1E894E2
:100CD0006F936E7F6E5F7F4F8F4F9F4FAF4FB1E02F
:100CE0003ED0B4E03CD0670F781F891F9A1FA11D2A
:100CF000680F791F8A1F911DA11D6A0F711D811D2B
:100D0000911DA11D20D009F468943F912AE0269FEF
:100D100011243019305D3193DEF6CF010895462F4E
:100D20004770405D4193B3E00FD0C9F7F6CF462F2F
:100D30004F70405D4A3318F0495D31FD4052419398
:100D400002D0A9F7EACFB4E0A69597958795779555
:100D50006795BA95C9F700976105710508959B01DC
:100D6000AC010A2E06945795479537952795BA9565
:100D7000C9F7620F731F841F951FA01D08952F923E
:100D80003F924F925F926F927F928F929F92AF921B
:100D9000BF92CF92DF92EF92FF920F931F93CF9368
:100DA000DF93CDB7DEB7CA1BDB0B0FB6F894DEBFFF
:100DB0000FBECDBF09942A88398848885F846E8425
:100DC0007D848C849B84AA84B984C884DF80EE806F
:100DD000FD800C811B81AA81B981CE0FD11D0FB678
:100DE000F894DEBF0FBECDBFED010895F894FFCF9C
:100DF00001120712074A064A0643756D756C617445
:100E00006976652062797465732073656E74206FEE
:100E10006E206877535049203D2025640D0A004319
:100E2000756D756C6174697665206279746573207F
:100E300073656E74206F6E207377535049203D2088
:100E400025640D0A00435320425547210D0A0044F2
:100E50004320425547210D0A005245534554204234
:100E60005547210D0A00436F6E6669726D656420F7
:100E7000555341525420696E697428290D0A00693E
:100E80006E697448575F53504928292E2E2E0D0A3B
:100E900000646F6E6521200D0A00524553455420B1
:100EA000484947480D0A005245534554204C4F5776
:100EB0000D0A00535344313330365F626567696E03
:100EC0002829202D2D3E3E5B00085D3C3C2D2D0D3C
:100ED0000A00535344313330365F646973706C6178
:100EE000792829202D2D3E3E5B0044445242203D6E
:100EF0002025580D0A0044445243203D2025580D1A
:100F00000A00504F525442203D2025580D0A0050EF
:100F10004F525443203D2025580D0A005350435250
:100F2000203D2025580D0A0053505352203D2025C6
:040F3000580D0A004E
:00000001FF
