:100000000C9434000C943E000C943E000C943E0082
:100010000C943E000C943E000C943E000C943E0068
:100020000C943E000C943E000C943E000C943E0058
:100030000C943E000C943E000C943E000C943E0048
:100040000C943E000C943E000C943E000C943E0038
:100050000C943E000C943E000C943E000C943E0028
:100060000C943E000C943E0011241FBECFEFD8E04C
:10007000DEBFCDBF0E948B000C9492000C94000058
:10008000CF93DF93CDB7DEB78AE290E02AE230E08B
:10009000F90120812066FC01208384E490E024E4BF
:1000A00030E0F9012081206EFC01208385E490E09E
:1000B00025E430E0F90120812860FC01208384E4FC
:1000C00090E024E430E0F90120812360FC012083EA
:1000D00085E490E025E430E0F90120812460FC0112
:1000E00020838EE690E02EE630E0F9012081FC01CD
:1000F000208387E490E02CE9FC01208388E490E0F1
:100100002CE7FC01208386E490E0FC0110827894C7
:10011000DF91CF910895CF93DF93CDB7DEB70E94E3
:080120004000FFCFF894FFCF6F
:00000001FF
